:100000000C943A010C9459010C9459010C94590127
:100010000C9459010C9459010C9459010C945901F8
:100020000C9459010C9459010C9459010C945901E8
:100030000C9459010C9459010C9459010C945901D8
:100040000C9459010C9459010C9459010C945901C8
:100050000C9459010C9459010C9459010C945901B8
:100060000C9459010C9459010C9459010C945901A8
:100070000C9459010C9459010C9459010C94590198
:100080000C9459010C9459010C9459010C94590188
:100090000C9459010C945901000000000000005F0D
:1000A00000000003000300143E143E14242A7F2A9B
:1000B000124333086661364955225000050300009B
:1000C000001C2241000041221C0014083E081408B4
:1000D000083E0808005030000008080808080060C2
:1000E00060000020100804023E5149453E00040211
:1000F0007F00426151494622414949361814127F16
:100100001027454545393E494949320101710907E2
:100110003649494936264949493E003636000000ED
:10012000563600000814224100141414141400411F
:1001300022140802015109063E4159555E7E090903
:10014000097E7F494949363E414141227F41414133
:100150003E7F494949417F090909013E4141493AE8
:100160007F0808087F00417F4100304040403F7FCA
:10017000081422417F404040407F020C027F7F02F2
:1001800004087F3E4141413E7F090909061E2121A5
:10019000215E7F09090976264949493201017F011B
:1001A000013F4040403F1F2040201F7F2010207F04
:1001B00041221C224107087008076151494543004C
:1001C0007F41000002040810200000417F0004026B
:1001D0000102044040404040000102040020545409
:1001E00054787F4444443838444444443844444474
:1001F0007F385454541804047E0505085454543C64
:100200007F0804047800447D40002040443D007F86
:100210001028440000417F40007C047804787C086A
:1002200004047838444444387C1414140808141422
:10023000147C007C080404485454542004043F44B3
:10024000443C4040207C1C2040201C3C4030403C32
:1002500044281028440C5050503C4464544C4400F2
:100260000836414100007F0000414136080002018C
:100270000204020011241FBECFEFD0E2DEBFCDBFCB
:1002800011E0A0E0B1E0EEE9FCE100E00BBF02C04C
:1002900007900D92A23EB107D9F721E0A2EEB1E09E
:1002A00001C01D92AC3FB207E1F70E94DF0C0C9435
:1002B0004D0E0C94000093E89093B00091E0909361
:1002C000B1008093B30008959093ED018093EC0109
:1002D00026E330E020930040009779F480EF90E02F
:1002E0009093E9018093E80180E491E09093EB0121
:1002F0008093EA0188E490E034C08130910579F47C
:1003000080E491E09093E9018093E80180EF90E030
:100310009093EB018093EA0188EE90E022C0823056
:10032000910579F480EF90E09093E9018093E801E2
:1003300080E491E09093EB018093EA0188E890E0FB
:1003400010C0039781F480E491E09093E9018093D9
:10035000E80180EF90E09093EB018093EA0188E25E
:1003600090E0809300418AE290E08093004020E09A
:1003700030E030930041209300418091E80190915A
:10038000E901019790930041809300418BE290E056
:100390008093004030930041209300418091EA0116
:1003A0009091EB0101979093004180930041089553
:1003B000CF93873748F4883048F08D3350F48F312D
:1003C00050F4803150F403C086E703C088E0C3E0F6
:1003D00005C0C0E003C0C1E001C0C2E021EB30E0D5
:1003E00020930040C0930041682F70E080E090E0CF
:1003F0000E948C0D9B01AC0160E070E080EF94E402
:100400000E94E90C0E945B0D70E002C07595679533
:10041000CA95E2F760930041CF9108950F931F931F
:10042000CF93DF93CDB7DEB728970FB6F894DEBF32
:100430000FBECDBF29833A834B835C836D837E835C
:100440008F83988769817A812B813C814D815E8180
:100450008F819885EAE2F0E0E093004070930041DC
:10046000609300413093004120930041EBE2F0E0C3
:10047000E09300405093004140930041909300412D
:1004800080930041ECE2F0E0E09300402F5F3F4FAB
:10049000261B370B0196841B950B2817390790F400
:1004A000482F4770429FB001439F700D112453E0C5
:1004B000969587955A95E1F7829FA001839F500DED
:1004C000112411C0422F4770489FB001499F700D01
:1004D000112443E0369527954A95E1F7289FA0011E
:1004E000299F500D1124862F8770815028F010937A
:1004F000004100930041F9CFCB0123E09695879509
:100500002A95E1F7840F951F019708F11093004198
:10051000009300411093004100930041109300416B
:10052000009300411093004100930041109300415B
:10053000009300411093004100930041109300414B
:10054000009300411093004100930041DDCF2896B5
:100550000FB6F894DEBF0FBECDBFDF91CF911F91D4
:100560000F910895EF92FF920F931F93CF93DF9314
:10057000CDB7DEB728970FB6F894DEBF0FBECDBF5C
:1005800029833A834B835C836D837E838F83988733
:1005900089819A81EB80FC806D817E81AF81B885F5
:1005A0002AE230E020930040909300418093004184
:1005B000F0920041E09200412BE230E020930040B5
:1005C0007093004160930041B0930041A0930041BB
:1005D0002CE230E020930040E816F906A0F0A801D4
:1005E0009B018A01A217B30760F04E5F5F4FF801CD
:1005F0000081118110930041009300412F5F3F4F14
:10060000F0CF0196E9CF28960FB6F894DEBF0FBE63
:10061000CDBFDF91CF911F910F91FF90EF90089583
:100620000F931F93CF93DF93CDB7DEB728970FB605
:10063000F894DEBF0FBECDBFE8EEF1E01782168260
:10064000118610861A821982808191810197482F24
:100650009C838B831E821D82828193810197988760
:100660008F830485158520E03A815C8160E07E817E
:1006700098850E940E0228960FB6F894DEBF0FBE32
:10068000CDBFDF91CF911F910F91089586E08093A8
:10069000750080E8809374003F9A249A8FEC97E06D
:1006A0000197F1F700C0000047988FE39CE901979C
:1006B000F1F700C00000479A9FEF2DEE82E09150C5
:1006C00020408040E1F700C0000088E290E0809385
:1006D000004081E190E0809300409FEF26E781E0B9
:1006E000915020408040E1F700C0000021E030E060
:1006F0008BEC90E0809300402093004180EC90E0F0
:100700008093004088E096E29093004180930041FE
:1007100020E130E081EC90E08093004020930041A4
:1007200085EC90E0809300408EE395E39093004148
:100730008093004125EB30E087EC90E0809300400F
:100740002093004121E030E086EF90E0809300406C
:100750002093004180E090E090930041809300411D
:1007600025E530E08AE390E080930040209300414B
:1007700081E090E00E9464010E941003E8EEF1E045
:100780001782168211861086158614868FEF9FEFCA
:100790009387828789E290E0809300409FE728E377
:1007A00081E0915020408040E1F700C0000020E04F
:1007B00030E085E390E08093004020930041EAE63A
:1007C000F0E08081806280832C9A08959F92AF929E
:1007D000BF92CF92DF92EF92FF920F931F93CF932E
:1007E000DF932091F0013091F1018A30F9F41092F9
:1007F000EF011092EE01285F3F4F3093F1012093FB
:10080000F0018091EA019091EB012817390708F473
:10081000A8C0DF91CF911F910F91FF90EF90DF90D3
:10082000CF90BF90AF909F900C94100390EE980FD4
:100830009F3508F096C06091EE017091EF01A9011B
:10084000495F5F4F082E000C990B8097E5E0E89F09
:10085000E001E99FD00D11248BE290E080930040ED
:100860003093004120930041509300414093004158
:10087000CB01DB0114960AE210E0ECE2EE2EF12C43
:10088000A817B90780F1009300409093004180932E
:1008900000419093004180930041E0920040FC01B0
:1008A000E61BF70BEC0FFD1FE856FF4F9490690114
:1008B000F1E04C155D05A8F0BF2EB92029F0A090FD
:1008C000F201B090F30104C0A090F401B090F501E2
:1008D000B0920041A0920041EFEFCE1ADE0AFF0F66
:1008E000E8CF0196CDCF6AE270E06093004090932C
:1008F00000418093004190930041809300418CE23D
:1009000090E0809300404217530758F08091F40123
:100910009091F50190930041809300412F5F3F4FEC
:10092000F2CF8091EE019091EF019C012A5F3F4F41
:100930003093EF012093EE010B962091E801309166
:10094000E9018217930768F01092EF011092EE010F
:100950008091F0019091F10108969093F1018093BC
:10096000F001DF91CF911F910F91FF90EF90DF90F9
:10097000CF90BF90AF909F9008950F931F93CF9308
:100980008C01C0E0F801EC0FF11D8081882321F07B
:100990000E94E603CF5FF6CFCF911F910F9108958C
:1009A000E8EEF1E097838683718760870895E8EE2B
:1009B000F1E0938782877587648708950F931F936B
:1009C000CF938C017093EF016093EE015093F1018E
:1009D0004093F001C0E0F801EC0FF11D8081882305
:1009E00021F00E94E603CF5FF6CFCF911F910F91C8
:1009F00008958DB18F7C8DB98EB180638EB987B12A
:100A0000837C87B988B18C6388B96F98779A87B1EE
:100A1000837C87B988B18C6388B90895AC01F89458
:100A20009CB195FF02C023E001C020E094FF02C00A
:100A300081E028279091E501921B90FF09C0209347
:100A4000E5012091F90192702150920F9093F901E4
:100A50007894CA010895F8948091F9019091F90170
:100A600091709093F901789485950895AC01F8946C
:100A700096B18CB123B13091F801906C8F679823B7
:100A80002F6B9223909539272091E4012323922FF5
:100A900090959093E4012091E3012323292720934B
:100AA000E301932392238091F80189278093F80131
:100AB0002091F8018091F6019223982B9093F601F2
:100AC0008091F8018C7F19F48CE38093E20180918E
:100AD000E201815019F08093E2010BC08AE080931B
:100AE000E2018091F8019091F7018C7F892B80932E
:100AF000F7017894CA010895F8949091F60189233A
:100B00009091F60198279093F60178940895F894BF
:100B10009091F70189239091F70198279093F7011D
:100B2000789408959091F80189230895F89490910C
:100B3000F801909589230C947C050E9487050C94FC
:100B40007C05CF93DF9300D000D000D0CDB7DEB7C7
:100B50008091FB01811109C08FEF9FEF9093F3010A
:100B60008093F20180E094E008C08FEF9FEF9093B4
:100B7000F3018093F20180E098EF9093F501809368
:100B8000F4018091E7014AE0BE016F5F7F4F90E082
:100B90000E94180E44EB50E066E970E0CE01019629
:100BA0000E94DE0426960FB6F894DEBF0FBECDBFBE
:100BB000DF91CF91089508950F931F93CF93DF9303
:100BC000CDB7DEB728970FB6F894DEBF0FBECDBF06
:100BD00080EE9FEF9093F3018093F20180E098EF15
:100BE0009093F5018093F40186EE90E098878F83CF
:100BF0008091FB01813011F58FE5482F8B831C829A
:100C00008DE2282F89831A828EEB682F8D831E82B6
:100C100000E018EF30E050E070E08F8198850E948E
:100C20000E0248EC50E06CE370E080E091E00E943E
:100C3000DE0445ED50E06CE370E06CC0823011F5ED
:100C40008BE9482F8B831C8289E6282F89831A829F
:100C50008EEB682F8D831E8200E018EF30E050E0AD
:100C600070E08F8198850E940E0248EC50E068E7A2
:100C700070E08AE091E00E94DE0445ED50E068E714
:100C800070E048C0833011F587ED482F8B831C82BC
:100C900085EA282F89831A828EEB682F8D831E8226
:100CA00000E018EF30E050E070E08F8198850E94FE
:100CB0000E0248EC50E064EB70E08EE091E00E94A0
:100CC000DE0445ED50E064EB70E024C0843081F533
:100CD00083E1482F8B8381E08C8381EE282F8983E9
:100CE0001A828EEB682F8D831E8200E018EF30E0B1
:100CF00051E070E08F8198850E940E0248EC50E030
:100D000060EF70E083E191E00E94DE0445ED50E089
:100D100060EF70E085E091E028960FB6F894DEBFB2
:100D20000FBECDBFDF91CF911F910F910C94DE04C8
:100D300028960FB6F894DEBF0FBECDBFDF91CF91DE
:100D40001F910F9108958F929F92AF92BF92CF9271
:100D5000DF92EF92FF920F931F93CF93DF93CDB764
:100D6000DEB728970FB6F894DEBF0FBECDBF5C018B
:100D70008091FA01813049F0823051F0833059F08E
:100D8000843059F43CE02EED08C032E62AE205C07A
:100D90003EE926E602C03AED22EA8BEB982E812C42
:100DA000692D9D828E828CEBC22ED12CDA82C98273
:100DB000E32EF12C432FFC82EB8285013A815C818A
:100DC00070E090E00E940E0289EE8F8318869FEFFC
:100DD000C91AD90A4C2DDC82CB8229813A815C81E7
:100DE0006D817E8190E00E940E0288EE682F4E2D6C
:100DF000FC82EB8229813A815C8170E08F81988549
:100E00000E940E02692D81E0E81AF1082E2DFA8267
:100E1000E9823A814B815C8170E08F8198850E94E4
:100E20000E0228960FB6F894DEBF0FBECDBFDF913D
:100E3000CF911F910F91FF90EF90DF90CF90BF90D7
:100E4000AF909F908F9008950F931F93CF93DF9350
:100E5000CDB7DEB728970FB6F894DEBF0FBECDBF73
:100E6000E8EEF1E080EE9FEF9387828782EB98EFC8
:100E70009587848786EE8F8318869FE5492F9DE2AC
:100E8000292F9EEB692F9D831E8202EB18EF30E025
:100E900050E070E090E00E940E0248EC50E06CE3FD
:100EA00070E080E091E00E94DE0445ED50E06CE3EC
:100EB00070E085E091E00E94DE048BE9482F89E62E
:100EC000282F30E050E06D817E818F8198850E94CF
:100ED0000E0248EC50E068E770E08AE091E00E9482
:100EE000DE0445ED50E068E770E085E091E00E94A7
:100EF000DE0487ED482F85EA282F30E050E06D8131
:100F00007E818F8198850E940E0248EC50E064EB50
:100F100070E08EE091E00E94DE0445ED50E064EB6D
:100F200070E085E091E00E94DE0483E1482F8B832E
:100F300081E08C8381EE282F89831A8230E051E092
:100F40006D817E818F8198850E940E0248EC50E071
:100F500060EF70E083E191E00E94DE0445ED50E037
:100F600060EF70E085E091E00E94DE040E94DC0505
:100F700080EE9FEF28960FB6F894DEBF0FBECDBF70
:100F8000DF91CF911F910F910C94A30680E090E028
:100F90000C94A306EF92FF920F931F93CF93DF93CE
:100FA000CDB7DEB728970FB6F894DEBF0FBECDBF22
:100FB0007C01E8EEF1E0138612868FEF9FEF9587B4
:100FC00084878FE0682F8D831E8288E28F83188646
:100FD00098EC292F99831A8290E4492F9B8391E002
:100FE0009C830FEF1FEF30E051E070E090E00E9433
:100FF0000E0247E150E062ED70E0C70128960FB69F
:10100000F894DEBF0FBECDBFDF91CF911F910F913E
:10101000FF90EF900C94DE04813029F48093FB0163
:1010200088E191E014C0823029F48093FB018AE3C7
:1010300091E00DC0833029F48093FB018FE591E0AE
:1010400006C0843031F48093FB018AE891E00C946F
:10105000CA0708959091FB01981322C01092FB01DA
:10106000913019F48CE991E004C0923051F489EA8E
:1010700091E00E94CA078091E7018D5F8093E701AC
:1010800013C0933019F48DEB91E004C0943061F4F7
:1010900083EC91E00E94CA078091E7018E5FEECF5A
:1010A00081ED91E00E94CA070C9424072F923F9291
:1010B0004F925F926F927F928F929F92AF92BF9268
:1010C000CF92DF92EF92FF920F931F93CF93DF9314
:1010D000CDB7DEB728970FB6F894DEBF0FBECDBFF1
:1010E00086E1682F8BE19DE5292E222D48E600EE52
:1010F0001FEF30E050E070E090E00E940E028CE1C3
:10110000682F81E229E6822E282D34E7932E492D7F
:1011100030E050E070E090E00E940E0282E2682F22
:101120008D831E8287E28F8318864FE6442E242DFE
:101130004AE730E050E070E090E00E940E0229E9BA
:101140008EE9482F30E050E06D817E818F81988557
:101150000E940E0288E2682F8D831E828DE28F83AB
:10116000188655E7352E232D40E830E050E070E03A
:1011700090E00E940E0229E94AEA30E050E06D81D9
:101180007E818F8198850E940E028EE2682F8D836A
:101190001E8283E38F8318862BE786E8482F30E092
:1011A00050E070E083E390E00E940E0227E840EBFD
:1011B00001E110E030E050E06D817E818F81988503
:1011C0000E940E0284E3682F8D831E8299E39F8321
:1011D000188623E34EE330E050E070E089E390E0CE
:1011E0000E940E022BE740E800EE1FEF30E050E0D7
:1011F0006D817E818F8198850E940E0221E86CEBC3
:10120000562E452D01E110E030E050E06D817E81E9
:101210008F8198850E940E028AE3682F8D831E823B
:101220008FE38F83188629E344E430E050E070E0D8
:1012300090E00E940E02232D42EC30E050E06D81E0
:101240007E818F8198850E940E0280E4682F8D83B5
:101250001E8275E4B72EBF82188629E34AE430E087
:1012600050E070E08B2D90E00E940E02242D40E8AB
:1012700030E050E06D817E818F8198850E940E0262
:1012800021E846EB00EE1FEF30E050E06D817E81FB
:101290008F8198850E940E02E7EB6E2E262DFEECC4
:1012A000EF2E4E2D01E110E030E050E06D817E81A7
:1012B0008F8198850E940E0286E4682F8D831E829E
:1012C0009BE49F8318862FE340E530E050E070E018
:1012D0008BE490E00E940E02282D492D30E050E072
:1012E0006D817E818F8198850E940E02232DA8EC4E
:1012F000FA2E4F2D00EE1FEF30E050E06D817E8121
:101300008F8198850E940E02B9ECAB2E2A2D44EDF8
:1013100030E050E06D817E818F8198850E940E02C1
:101320008CE4682F8D831E8281E58F8318862B2D98
:1013300046E501E110E030E050E070E090E00E940E
:101340000E0223E64EE630E050E06D817E818F8113
:1013500098850E940E02242D452D00EE1FEF30E0EF
:1013600050E06D817E818F8198850E940E021DEB79
:10137000712E272D4F2D00E014E830E050E06D81F4
:101380007E818F8198850E940E022A2D4E2D00EEBF
:101390001FEF30E050E06D817E818F8198850E9443
:1013A0000E028FECC82E2C2D44ED30E050E06D8104
:1013B0007E818F8198850E940E0282E5682F8D8341
:1013C0001E8287E58F8318862B2D46E501E110E00C
:1013D00030E050E070E090E00E940E02222D82E6A4
:1013E000482F30E050E06D817E818F8198850E948A
:1013F0000E0223E6492D00EE1FEF30E050E06D8134
:101400007E818F8198850E940E02232D46EB0CEB86
:101410001EEA30E050E06D817E818F8198850E94C8
:101420000E02262D452D00E014E830E050E06D81DD
:101430007E818F8198850E940E02272D4F2D00E01E
:1014400010E030E050E06D817E818F8198850E94B0
:101450000E022A2D4E2D00E014E830E050E06D81A0
:101460007E818F8198850E940E022C2D44ED00EE26
:101470001FEF30E050E06D817E818F8198850E9462
:101480000E0285ED282F9AEDD92E4D2D01E110E0A9
:1014900030E050E06D817E818F8198850E940E0240
:1014A00088E5682F8D831E822F8218862BE44CE5F9
:1014B00030E050E070E0822D90E00E940E02222D7C
:1014C00048E600EE1FEF30E050E06D817E818F81B5
:1014D00098850E940E02282D46EB0CEB1EEA30E0A8
:1014E00050E06D817E818F8198850E940E02262DAD
:1014F000452D00E014E830E050E06D817E818F8161
:1015000098850E940E02272D4F2D00E010E030E05C
:1015100050E06D817E818F8198850E940E022A2D78
:101520004E2D00E014E830E050E06D817E818F8127
:1015300098850E940E022C2D4D2D0CEB1EEA30E0FA
:1015400050E06D817E818F8198850E940E028EE52C
:10155000682F8D831E8283E68F8318862BE44CE5EB
:1015600001E110E030E050E070E090E00E940E02F7
:10157000222D4D2D0CEB1EEA30E050E06D817E8176
:101580008F8198850E940E0284E6682F8D831E82CB
:101590008F8218862B2D46E501E110E030E050E007
:1015A00070E0882D90E00E940E02222D42E90CEBA3
:1015B0001EEA30E050E06D817E818F8198850E9427
:1015C0000E0223E9622E262D4AEA00E114E830E0FB
:1015D00050E06D817E818F8198850E940E023BEAEA
:1015E000732E272D4F2D0CEB1EEA30E050E06D815D
:1015F0007E818F8198850E940E022A2D4E2D00E05B
:1016000018EF30E050E06D817E818F8198850E94D7
:101610000E022C2D4D2D0CEB1EEA30E050E06D81BA
:101620007E818F8198850E940E028AE6682F8D83C5
:101630001E824F8218862B2D46E501E110E030E036
:1016400050E070E0842D90E00E940E0223E64AE70D
:101650000CEB1EEA30E050E06D817E818F81988531
:101660000E940E022BE784EA482F00E114E830E0E4
:1016700050E06D817E818F8198850E940E0285EAFF
:10168000282F4E2D0CEB1EEA30E050E06D817E815C
:101690008F8198850E940E022C2D4D2D00E018EFB1
:1016A00030E050E06D817E818F8198850E940E022E
:1016B00080E7682F8D831E823F8218862FE340E5E6
:1016C00001E110E030E050E070E0832D90E00E94F6
:1016D0000E02282D44ED0CEB1EEA30E050E06D8147
:1016E0007E818F8198850E940E0286E7682F8D8308
:1016F0001E829BE79F83188629E34AE401E110E0FC
:1017000030E050E070E08BE790E00E940E02242D64
:101710004F2D0CEB1EEA30E050E06D817E818F8111
:1017200098850E940E028CE7682F8D831E8281E8C7
:101730008F83188629E344E401E110E030E050E0B3
:1017400070E090E00E940E02242D492D00EE1FEF64
:1017500030E050E06D817E818F8198850E940E027D
:10176000232D42EC0CEB1EEA30E050E06D817E81CF
:101770008F8198850E940E0282E8682F8D831E82D9
:1017800097E89F83188623E34EE301E110E030E001
:1017900050E070E087E890E00E940E02242D40E8BF
:1017A00000EE1FEF30E050E06D817E818F819885E3
:1017B0000E940E0221E8452D0CEB1EEA30E050E0BD
:1017C0006D817E818F8198850E940E0288E8682F46
:1017D0008D831E824DE8F42EE12CFF82E886282DB1
:1017E0004AE700EE1FEF30E050E070E08F2D90E010
:1017F0000E940E022F2DF982EA8240EB0CEB1EEACA
:1018000030E050E06D817E818F8198850E940E02CC
:1018100042E900EE1FEF29813A8150E06D817E811F
:101820008F8198850E940E028EE8682F8D831E821C
:101830006F821886282D492D30E050E070E0862D0B
:1018400090E00E940E02272D46EB30E050E06D81C3
:101850007E818F8198850E940E0284E9682F8D8396
:101860001E8289E98F831886222D4EE630E050E0F3
:1018700070E090E00E940E02272D40EB30E050E037
:101880006D817E818F8198850E940E028AE9682F82
:101890008D831E828FE98F83188697E5292F92E624
:1018A000492F30E050E070E090E00E940E0285EA9F
:1018B000282F8AEA482F30E050E06D817E818F81A9
:1018C00098850E940E0228960FB6F894DEBF0FBED0
:1018D000CDBFDF91CF911F910F91FF90EF90DF90DF
:1018E000CF90BF90AF909F908F907F906F905F90C0
:1018F0004F903F902F90089584E00E940C0880EE56
:101900008093E7011092E60181E08093FA010E9442
:10191000240780E00E945608C1E0D4E080E090E017
:101920000E94360588E00E947C05882391F080E0C3
:1019300090E00E94A3068091FA018F5F853019F034
:101940008093FA0102C0C093FA0180EE9FEF0E94DB
:10195000A30680E20E947C05882389F080E090E065
:101960000E94A3068091FA01815019F08093FA0138
:1019700002C0D093FA0180EE9FEF0E94A30680E898
:101980000E947C05882321F08091FA010E942A0898
:101990008091E70181508093E7018091E6018F5F9C
:1019A0008093E601833009F0B9CF1092E601B6CFFB
:1019B0009091FB01911102C00C94560808950E9469
:1019C000460381E090E00E9464010E94F9040E94B5
:1019D0007C0C0E94FD0C0C94DE0D0E94D70D58F07B
:1019E0000E94D00D40F029F45F3F29F00C94C70D00
:1019F00051110C94120E0C94CD0D0E94EF0D68F352
:101A00009923B1F3552391F3951B550BBB27AA27B7
:101A100062177307840738F09F5F5F4F220F331FF1
:101A2000441FAA1FA9F335D00E2E3AF0E0E832D0B9
:101A300091505040E695001CCAF72BD0FE2F29D0BC
:101A4000660F771F881FBB1F261737074807AB078E
:101A5000B0E809F0BB0B802DBF01FF2793585F4F03
:101A60003AF09E3F510578F00C94C70D0C94120E7D
:101A70005F3FE4F3983ED4F3869577956795B795E5
:101A8000F7959F5FC9F7880F911D9695879597F9F0
:101A90000895E1E0660F771F881FBB1F6217730769
:101AA0008407BA0720F0621B730B840BBA0BEE1F7E
:101AB00088F7E09508950E94F70D88F09F5798F0F9
:101AC000B92F9927B751B0F0E1F0660F771F881F43
:101AD000991F1AF0BA95C9F714C0B13091F00E945D
:101AE000110EB1E008950C94110E672F782F8827FE
:101AF000B85F39F0B93FCCF3869577956795B39584
:101B0000D9F73EF490958095709561957F4F8F4FF2
:101B10009F4F0895E89409C097FB3EF490958095F7
:101B2000709561957F4F8F4F9F4F9923A9F0F92FA3
:101B300096E9BB279395F695879577956795B79521
:101B4000F111F8CFFAF4BB0F11F460FF1BC06F5F07
:101B50007F4F8F4F9F4F16C0882311F096E911C019
:101B6000772321F09EE8872F762F05C0662371F03A
:101B700096E8862F70E060E02AF09A95660F771F4E
:101B8000881FDAF7880F9695879597F9089597F942
:101B90009F6780E870E060E008959FEF80EC089513
:101BA00000240A941616170618060906089500243C
:101BB0000A9412161306140605060895092E0394B6
:101BC000000C11F4882352F0BB0F40F4BF2B11F42A
:101BD00060FF04C06F5F7F4F8F4F9F4F089557FD89
:101BE0009058440F551F59F05F3F71F04795880F8B
:101BF00097FB991F61F09F3F79F087950895121622
:101C000013061406551FF2CF4695F1DF08C01616CD
:101C100017061806991FF1CF86957105610508947E
:101C20000895E894BB2766277727CB0197F9089595
:101C3000BB274A3031F4992322F4BDE29095819577
:101C40009F4F0C94240EBB27FB015527AA27880F12
:101C5000991FAA1FA41710F0A41B83955051B9F720
:101C6000A05DAA3308F0A95DA193009779F7B1119F
:101C7000B1931192CB010C943D0EDC01FC01672F56
:101C800071917723E1F7329704C07C916D93708353
:0E1C90006291AE17BF07C8F30895F894FFCF16
:101C9E0046454544004D45212100485547005741D2
:101CAE004C4B00574153480049274D205354415245
:101CBE0056494E4721212049274D20474F4E4E4130
:101CCE00204641494E54203B280069276D20736FF2
:101CDE006F6F206C6F6E656C7920616E642073611E
:101CEE00642E2E2E206C6F7665206D652121006985
:101CFE00276D2067657474696E6720666174206154
:101D0E006E6420626F72656420696E2074686973F8
:101D1E0020617175617269756D006D792066696EED
:101D2E0073206973207374616E6B79006D6D6D2015
:101D3E00636869636B656E21002A637564646C6504
:101D4E00732A202A627562626C65732A00776F6F40
:101D5E0066210069206665656C2066726573682170
:101D6E000069276D206479696E6720686572652148
:021D7E00210042
:00000001FF
