:100000000C943A010C9459010C9459010C94590127
:100010000C9459010C9459010C9459010C945901F8
:100020000C9459010C9459010C9459010C945901E8
:100030000C9459010C9459010C9459010C945901D8
:100040000C9459010C9459010C9459010C945901C8
:100050000C9459010C9459010C9459010C945901B8
:100060000C9459010C9459010C9459010C945901A8
:100070000C9459010C9459010C9459010C94590198
:100080000C9459010C9459010C9459010C94590188
:100090000C9459010C945901000000000000005F0D
:1000A00000000003000300143E143E14242A7F2A9B
:1000B000124333086661364955225000050300009B
:1000C000001C2241000041221C0014083E081408B4
:1000D000083E0808005030000008080808080060C2
:1000E00060000020100804023E5149453E00040211
:1000F0007F00426151494622414949361814127F16
:100100001027454545393E494949320101710907E2
:100110003649494936264949493E003636000000ED
:10012000563600000814224100141414141400411F
:1001300022140802015109063E4159555E7E090903
:10014000097E7F494949363E414141227F41414133
:100150003E7F494949417F090909013E4141493AE8
:100160007F0808087F00417F4100304040403F7FCA
:10017000081422417F404040407F020C027F7F02F2
:1001800004087F3E4141413E7F090909061E2121A5
:10019000215E7F09090976264949493201017F011B
:1001A000013F4040403F1F2040201F7F2010207F04
:1001B00041221C224107087008076151494543004C
:1001C0007F41000002040810200000417F0004026B
:1001D0000102044040404040000102040020545409
:1001E00054787F4444443838444444443844444474
:1001F0007F385454541804047E0505085454543C64
:100200007F0804047800447D40002040443D007F86
:100210001028440000417F40007C047804787C086A
:1002200004047838444444387C1414140808141422
:10023000147C007C080404485454542004043F44B3
:10024000443C4040207C1C2040201C3C4030403C32
:1002500044281028440C5050503C4464544C4400F2
:100260000836414100007F0000414136080002018C
:100270000204020011241FBECFEFD0E2DEBFCDBFCB
:1002800012E0A0E0B1E0E8E3F9E200E00BBF02C059
:1002900007900D92AC3BB107D9F722E0ACEBB2E08E
:1002A00001C01D92AC3DB207E1F70E943F120C94D1
:1002B0009A140C94000093E89093B00091E090930E
:1002C000B1008093B30008959093C8028093C70251
:1002D00026E330E020930040009779F480EF90E02F
:1002E0009093C4028093C30280E491E09093C6028D
:1002F0008093C50288E490E034C08130910579F4A0
:1003000080E491E09093C4028093C30280EF90E078
:100310009093C6028093C50288EE90E022C082309E
:10032000910579F480EF90E09093C4028093C3022A
:1003300080E491E09093C6028093C50288E890E043
:1003400010C0039781F480E491E09093C4028093FD
:10035000C30280EF90E09093C6028093C50288E2CA
:1003600090E0809300418AE290E08093004020E09A
:1003700030E030930041209300418091C30290917E
:10038000C402019790930041809300418BE290E07A
:100390008093004030930041209300418091C5023A
:1003A0009091C60201979093004180930041089577
:1003B000CF93873748F4883048F08D3350F48F312D
:1003C00050F4803150F403C086E703C088E0C3E0F6
:1003D00005C0C0E003C0C1E001C0C2E021EB30E0D5
:1003E00020930040C0930041682F70E080E090E0CF
:1003F0000E941C139B01AC0160E070E080EF94E46C
:100400000E9479120E94EB1270E002C07595679508
:10041000CA95E2F760930041CF9108950F931F931F
:10042000CF93DF93CDB7DEB728970FB6F894DEBF32
:100430000FBECDBF29833A834B835C836D837E835C
:100440008F83988769817A812B813C814D815E8180
:100450008F819885EAE2F0E0E093004070930041DC
:10046000609300413093004120930041EBE2F0E0C3
:10047000E09300405093004140930041909300412D
:1004800080930041ECE2F0E0E09300402F5F3F4FAB
:10049000261B370B0196841B950B2817390790F400
:1004A000482F4770429FB001439F700D112453E0C5
:1004B000969587955A95E1F7829FA001839F500DED
:1004C000112411C0422F4770489FB001499F700D01
:1004D000112443E0369527954A95E1F7289FA0011E
:1004E000299F500D1124862F8770815028F010937A
:1004F000004100930041F9CFCB0123E09695879509
:100500002A95E1F7840F951F019708F11093004198
:10051000009300411093004100930041109300416B
:10052000009300411093004100930041109300415B
:10053000009300411093004100930041109300414B
:10054000009300411093004100930041DDCF2896B5
:100550000FB6F894DEBF0FBECDBFDF91CF911F91D4
:100560000F910895EF92FF920F931F93CF93DF9314
:10057000CDB7DEB728970FB6F894DEBF0FBECDBF5C
:1005800029833A834B835C836D837E838F83988733
:1005900089819A81EB80FC806D817E81AF81B885F5
:1005A0002AE230E020930040909300418093004184
:1005B000F0920041E09200412BE230E020930040B5
:1005C0007093004160930041B0930041A0930041BB
:1005D0002CE230E020930040E816F906A0F0A801D4
:1005E0009B018A01A217B30760F04E5F5F4FF801CD
:1005F0000081118110930041009300412F5F3F4F14
:10060000F0CF0196E9CF28960FB6F894DEBF0FBE63
:10061000CDBFDF91CF911F910F91FF90EF90089583
:100620000F931F93CF93DF93CDB7DEB728970FB605
:10063000F894DEBF0FBECDBFE3ECF2E01782168266
:10064000118610861A821982808191810197482F24
:100650009C838B831E821D82828193810197988760
:100660008F830485158520E03A815C8160E07E817E
:1006700098850E940E0228960FB6F894DEBF0FBE32
:10068000CDBFDF91CF911F910F91089586E08093A8
:10069000750080E8809374003F9A249A8FEC97E06D
:1006A0000197F1F700C0000047988FE39CE901979C
:1006B000F1F700C00000479A9FEF2DEE82E09150C5
:1006C00020408040E1F700C0000088E290E0809385
:1006D000004081E190E0809300409FEF26E781E0B9
:1006E000915020408040E1F700C0000021E030E060
:1006F0008BEC90E0809300402093004180EC90E0F0
:100700008093004088E096E29093004180930041FE
:1007100020E130E081EC90E08093004020930041A4
:1007200085EC90E0809300408EE395E39093004148
:100730008093004125EB30E087EC90E0809300400F
:100740002093004121E030E086EF90E0809300406C
:100750002093004180E090E090930041809300411D
:1007600025E530E08AE390E080930040209300414B
:1007700081E090E00E9464010E941003E3ECF2E04B
:100780001782168211861086158614868FEF9FEFCA
:100790009387828789E290E0809300409FE728E377
:1007A00081E0915020408040E1F700C0000020E04F
:1007B00030E085E390E08093004020930041EAE63A
:1007C000F0E08081806280832C9A08959F92AF929E
:1007D000BF92CF92DF92EF92FF920F931F93CF932E
:1007E000DF932091CB023091CC028A30F9F4109241
:1007F000CA021092C902285F3F4F3093CC02209367
:10080000CB028091C5029091C6022817390708F4DF
:10081000A8C0DF91CF911F910F91FF90EF90DF90D3
:10082000CF90BF90AF909F900C94100390EE980FD4
:100830009F3508F096C06091C9027091CA02A90163
:10084000495F5F4F082E000C990B8097E5E0E89F09
:10085000E001E99FD00D11248BE290E080930040ED
:100860003093004120930041509300414093004158
:10087000CB01DB0114960AE210E0ECE2EE2EF12C43
:10088000A817B90780F1009300409093004180932E
:1008900000419093004180930041E0920040FC01B0
:1008A000E61BF70BEC0FFD1FE856FF4F9490690114
:1008B000F1E04C155D05A8F0BF2EB92029F0A090FD
:1008C000CD02B090CE0204C0A090CF02B090D00272
:1008D000B0920041A0920041EFEFCE1ADE0AFF0F66
:1008E000E8CF0196CDCF6AE270E06093004090932C
:1008F00000418093004190930041809300418CE23D
:1009000090E0809300404217530758F08091CF0247
:100910009091D00290930041809300412F5F3F4F10
:10092000F2CF8091C9029091CA029C012A5F3F4F89
:100930003093CA022093C9020B962091C3023091D2
:10094000C4028217930768F01092CA021092C9027B
:100950008091CB029091CC0208969093CC02809328
:10096000CB02DF91CF911F910F91FF90EF90DF901D
:10097000CF90BF90AF909F9008950F931F93CF9308
:100980008C01C0E0F801EC0FF11D8081882321F07B
:100990000E94E603CF5FF6CFCF911F910F9108958C
:1009A000E3ECF2E097838683718760870895E3EC38
:1009B000F2E0938782877587648708950F931F936A
:1009C000CF938C017093CA026093C9025093CC02FA
:1009D0004093CB02C0E0F801EC0FF11D8081882329
:1009E00021F00E94E603CF5FF6CFCF911F910F91C8
:1009F00008958DB18F7C8DB98EB180638EB987B12A
:100A0000837C87B988B18C6388B96F98779A87B1EE
:100A1000837C87B988B18C6388B90895AC01F89458
:100A20009CB195FF02C023E001C020E094FF02C00A
:100A300081E028279091BF02921B90FF09C020936C
:100A4000BF022091D40292702150920F9093D40251
:100A50007894CA010895F8948091D4029091D402B8
:100A600091709093D402789485950895AC01F89490
:100A700096B18CB123B13091D302906C8F679823DB
:100A80002F6B9223909539272091BE022323922F1A
:100A900090959093BE022091BD0223232927209395
:100AA000BD02932392238091D30289278093D3029E
:100AB0002091D3028091D1029223982B9093D1025E
:100AC0008091D3028C7F19F48CE38093BC028091D7
:100AD000BC02815019F08093BC020BC08AE0809365
:100AE000BC028091D3029091D2028C7F892B80939B
:100AF000D2027894CA010895F8949091D102892382
:100B00009091D10298279093D10278940895F89407
:100B10009091D20289239091D20298279093D20289
:100B2000789408959091D30289230895F894909130
:100B3000D302909589230C947C050E9487050C9420
:100B40007C050F931F93CF93DF93CDB7DEB72E971E
:100B50000FB6F894DEBF0FBECDBF8AEA90E09E8349
:100B60008D8389EB90E098878F8381E990E09A8369
:100B700089838FEA90E09C838B838091D602909149
:100B8000D702892B79F48FEF9FEF9093CE02809359
:100B9000CD0280E094E09093D0028093CF0200E0F9
:100BA00014E00EC08FEF9FEF9093CE028093CD02A2
:100BB00080E098EF9093D0028093CF0200E018EF8E
:100BC00029813A814B815C816D817E818F819885FD
:100BD0000E940E024AE0BE01675F7F4F8091C10212
:100BE0009091C2020E9402144FEA50E066E970E060
:100BF000CE0109960E94DE042E960FB6F894DEBF51
:100C00000FBECDBFDF91CF911F910F9108950F932C
:100C10001F93CF93DF93CDB7DEB728970FB6F89425
:100C2000DEBF0FBECDBF80EE9FEF9093CE028093CC
:100C3000CD0280E098EF9093D0028093CF0286EEB1
:100C400090E098878F838091D6029091D70281306F
:100C5000910511F58FE5482F8B831C828DE2282F9B
:100C600089831A828EEB682F8D831E8200E018EF35
:100C700030E050E070E08F8198850E940E0248ECD1
:100C800050E06CE370E084E091E00E94DE0445ED0A
:100C900050E06CE370E06EC08230910511F58BE995
:100CA000482F8B831C8289E6282F89831A828EEB3A
:100CB000682F8D831E8200E018EF30E050E070E076
:100CC0008F8198850E940E0248EC50E068E770E042
:100CD0008EE091E00E94DE0445ED50E068E770E0B0
:100CE00049C08330910511F587ED482F8B831C8215
:100CF00085EA282F89831A828EEB682F8D831E82C6
:100D000000E018EF30E050E070E08F8198850E949D
:100D10000E0248EC50E064EB70E082E191E00E944A
:100D2000DE0445ED50E064EB70E024C0049781F5EB
:100D300083E1482F8B8381E08C8381EE282F898388
:100D40001A828EEB682F8D831E8200E018EF30E050
:100D500051E070E08F8198850E940E0248EC50E0CF
:100D600060EF70E087E191E00E94DE0445ED50E025
:100D700060EF70E089E091E028960FB6F894DEBF4E
:100D80000FBECDBFDF91CF911F910F910C94DE0468
:100D900028960FB6F894DEBF0FBECDBFDF91CF917E
:100DA0001F910F9108950F931F93CF93DF93CDB7AA
:100DB000DEB728970FB6F894DEBF0FBECDBFE3ECC9
:100DC000F2E080EE9FEF9387828782EB98EF958722
:100DD000848786EE8F8318869FE5492F9DE2292F11
:100DE0009EEB692F9D831E8202EB18EF30E050E0EE
:100DF00070E090E00E940E0248EC50E06CE370E07E
:100E000084E091E00E94DE0445ED50E06CE370E088
:100E100089E091E00E94DE048BE9482F89E6282FC3
:100E200030E050E06D817E818F8198850E940E02B6
:100E300048EC50E068E770E08EE091E00E94DE044C
:100E400045ED50E068E770E089E091E00E94DE0443
:100E500087ED482F85EA282F30E050E06D817E81B4
:100E60008F8198850E940E0248EC50E064EB70E0A0
:100E700082E191E00E94DE0445ED50E064EB70E019
:100E800089E091E00E94DE0483E1482F8B8381E0BA
:100E90008C8381EE282F89831A8230E051E06D81A6
:100EA0007E818F8198850E940E0248EC50E060EFB1
:100EB00070E087E191E00E94DE0445ED50E060EFD4
:100EC00070E089E091E00E94DE0428960FB6F89465
:100ED000DEBF0FBECDBFDF91CF911F910F910C945C
:100EE00007068F929F92AF92BF92CF92DF92EF92BE
:100EF000FF920F931F93CF93DF93CDB7DEB7289761
:100F00000FB6F894DEBF0FBECDBF5C018091D50255
:100F1000813071F0823099F08330C1F08430E1F497
:100F200076E1E72EFF24F394EEEDCE2ED12C14C003
:100F300052E6E52EF12C6AE2C62ED12C0DC03EE918
:100F4000E32EF12C46E6C42ED12C06C09AEDE92EF4
:100F5000F12C22EAC22ED12C8BEB982E812C692DFC
:100F60009D828E828CEB2C2DDA82C9824E2DFC82E2
:100F7000EB8285013A815C8170E090E00E940E0274
:100F800089EE8F8318869FEFC91AD90A4C2DDC820F
:100F9000CB8229813A815C816D817E8190E00E94C3
:100FA0000E0288EE682F4E2DFC82EB8229813A8159
:100FB0005C8170E08F8198850E940E02692D81E02E
:100FC000E81AF1082E2DFA82E9823A814B815C8180
:100FD00070E08F8198850E940E0228960FB6F894D3
:100FE000DEBF0FBECDBFDF91CF911F910F91FF905C
:100FF000EF90DF90CF90BF90AF909F908F9008952B
:1010000080E090E00C947107EF92FF920F931F9392
:10101000CF93DF93CDB7DEB728970FB6F894DEBF36
:101020000FBECDBF7C01E3ECF2E0138612868FEF9A
:101030009FEF958784878FE0682F8D831E8288E2DB
:101040008F83188698EC292F99831A8290E4492F70
:101050009B8391E09C830FEF1FEF30E051E070E045
:1010600090E00E940E0247E150E062ED70E0C7019F
:1010700028960FB6F894DEBF0FBECDBFDF91CF919B
:101080001F910F91FF90EF900C94DE048130D1F40A
:101090000E94F3136FE070E00E94511207962091B6
:1010A000C1023091C202820F931F9093C2028093BB
:1010B000C10281E090E09093D7028093D6028CE148
:1010C00091E053C08230D1F40E94F3136FE070E0DE
:1010D0000E94511207962091C1023091C202820FE4
:1010E000931F9093C2028093C10282E090E090939C
:1010F000D7028093D6028BE291E037C08330D1F4DF
:101100000E94F3136FE070E00E9451120796209145
:10111000C1023091C202820F931F9093C20280934A
:10112000C10283E090E09093D7028093D6028CE3D3
:1011300091E01BC08430D9F40E94F3136FE070E09B
:101140000E94511207962091C1023091C202820F73
:10115000931F9093C2028093C10284E090E0909329
:10116000D7028093D6028BE491E00E9404080C948D
:10117000D3062091D6023091D702482F50E0421773
:10118000530751F51092D7021092D602813019F40C
:101190008DE591E00EC0823019F48AE691E009C035
:1011A000833019F48DE791E004C08430F1F483E8D2
:1011B00091E00E9404080E94F31366E070E00E9430
:1011C00051122091C1023091C202820F931F90935D
:1011D000C2028093C10209C0232B19F481E991E076
:1011E00002C082EA91E00E9404080C94D3062F9278
:1011F0003F924F925F926F927F928F929F92AF92A7
:10120000BF92CF92DF92EF92FF920F931F93CF93F3
:10121000DF93CDB7DEB728970FB6F894DEBF0FBEC9
:10122000CDBF823009F009C486E1682F8BE19DE5CE
:10123000692E262D48E600EE1FEF30E050E070E00A
:1012400090E00E940E028CE1682F81E229E6822E56
:10125000282D34E7932E492D30E050E070E090E0E7
:101260000E940E0282E2682F8D831E8287E28F83A6
:1012700018864FE6342E232D4AE730E050E070E028
:1012800090E00E940E0229E98EE9482F30E050E0FC
:101290006D817E818F8198850E940E0288E2682F81
:1012A0008D831E828DE28F83188655E7252E222D91
:1012B00040E830E050E070E090E00E940E0229E942
:1012C0004AEA30E050E06D817E818F8198850E94EE
:1012D0000E028EE2682F8D831E8283E38F83188631
:1012E0002BE786E8482F30E050E070E083E390E0A1
:1012F0000E940E0227E840EB01E110E030E050E0F0
:101300006D817E818F8198850E940E0284E3682F13
:101310008D831E8299E39F83188623E34EE330E09A
:1013200050E070E089E390E00E940E022BE740E875
:1013300000EE1FEF30E050E06D817E818F81988557
:101340000E940E0221E86CEB462E442D01E110E0D4
:1013500030E050E06D817E818F8198850E940E0281
:101360008AE3682F8D831E828FE38F83188629E39B
:1013700044E430E050E070E090E00E940E02222D44
:1013800042EC30E050E06D817E818F8198850E9433
:101390000E0280E4682F8D831E8275E4D72EDF82D3
:1013A000188629E34AE430E050E070E08D2D90E0AB
:1013B0000E940E02232D40E830E050E06D817E81D6
:1013C0008F8198850E940E0221E846EB00EE1FEF08
:1013D00030E050E06D817E818F8198850E940E0201
:1013E000E7EB5E2E252DFEECBF2E4B2D01E110E02C
:1013F00030E050E06D817E818F8198850E940E02E1
:1014000086E4682F8D831E829BE49F8318862FE3DA
:1014100040E530E050E070E08BE490E00E940E0286
:10142000282D492D30E050E06D817E818F81988597
:101430000E940E02222DA8ECFA2E4F2D00EE1FEF77
:1014400030E050E06D817E818F8198850E940E0290
:10145000B9ECAB2E2A2D44ED30E050E06D817E8159
:101460008F8198850E940E028CE4682F8D831E82E6
:1014700081E58F8318862D2D46E501E110E030E0EF
:1014800050E070E090E00E940E0223E64EE630E06D
:1014900050E06D817E818F8198850E940E02232D00
:1014A000442D00EE1FEF30E050E06D817E818F8192
:1014B00098850E940E021DEB712E272D4F2D00E006
:1014C00014E830E050E06D817E818F8198850E9424
:1014D0000E022A2D4B2D00EE1FEF30E050E06D8103
:1014E0007E818F8198850E940E028FECC82E2C2D54
:1014F00044ED30E050E06D817E818F8198850E94BF
:101500000E0282E5682F8D831E8287E58F83188601
:101510002D2D46E501E110E030E050E070E090E074
:101520000E940E02262D42E630E050E06D817E8161
:101530008F8198850E940E0223E6492D00EE1FEF51
:1015400030E050E06D817E818F8198850E940E028F
:10155000222D46EB0CEB1EEA30E050E06D817E81DF
:101560008F8198850E940E02252D442D00E014E8FD
:1015700030E050E06D817E818F8198850E940E025F
:10158000272D4F2D00E010E030E050E06D817E818E
:101590008F8198850E940E022A2D4B2D00E014E8C1
:1015A00030E050E06D817E818F8198850E940E022F
:1015B0002C2D44ED00EE1FEF30E050E06D817E8178
:1015C0008F8198850E940E0285ED282F9AEDE92ED5
:1015D0004E2D01E110E030E050E06D817E818F8181
:1015E00098850E940E0288E5682F8D831E826F8287
:1015F00018862BE44CE530E050E070E0862D90E05A
:101600000E940E02262D48E600EE1FEF30E050E06B
:101610006D817E818F8198850E940E02282D46EB78
:101620000CEB1EEA30E050E06D817E818F81988561
:101630000E940E02252D442D00E014E830E050E019
:101640006D817E818F8198850E940E02272D4F2DFE
:1016500000E010E030E050E06D817E818F81988560
:101660000E940E022A2D4B2D00E014E830E050E0DD
:101670006D817E818F8198850E940E022C2D4E2DCA
:101680000CEB1EEA30E050E06D817E818F81988501
:101690000E940E028EE5682F8D831E8293E69F8343
:1016A00018862BE44CE501E110E030E050E070E0FA
:1016B00083E690E00E940E02262D4E2D0CEB1EEAD2
:1016C00030E050E06D817E818F8198850E940E020E
:1016D000272D4F2D00E014E830E050E06D817E8131
:1016E0008F8198850E940E022C2D4E2D00E018EF60
:1016F00030E050E06D817E818F8198850E940E02DE
:1017000084E6682F8D831E828F8218862D2D46E5F4
:1017100001E110E030E050E070E0882D90E00E94A0
:101720000E02262D42E90CEB1EEA30E050E06D81FE
:101730007E818F8198850E940E0223E9522E252DED
:101740004AEA00E114E830E050E06D817E818F814B
:1017500098850E940E023BEA732E272D4F2D0CEB2D
:101760001EEA30E050E06D817E818F8198850E9475
:101770000E022A2D4B2D00E018EF30E050E06D8175
:101780007E818F8198850E940E022C2D4E2D0CEBB0
:101790001EEA30E050E06D817E818F8198850E9445
:1017A0000E028AE6682F8D831E823F8218862D2DB9
:1017B00046E501E110E030E050E070E0832D90E07C
:1017C0000E940E0223E64AE70CEB1EEA30E050E0EE
:1017D0006D817E818F8198850E940E022BE784EABD
:1017E000482F00E114E830E050E06D817E818F8168
:1017F00098850E940E0245EAD42E2D2D4E2D0CEB1D
:101800001EEA30E050E06D817E818F8198850E94D4
:101810000E0283EC282F4F2D00E018EF30E050E04F
:101820006D817E818F8198850E940E0280E7682FEE
:101830008D831E822F8218862FE340E501E110E0A0
:1018400030E050E070E0822D90E00E940E02282DE2
:1018500044ED0CEB1EEA30E050E06D817E818F811B
:1018600098850E940E0286E7682F8D831E828BE783
:101870008F83188629E34AE401E110E030E050E06C
:1018800070E090E00E940E02232D4F2D0CEB1EEA1B
:1018900030E050E06D817E818F8198850E940E023C
:1018A0008CE7682F8D831E8291E89F83188629E339
:1018B00044E401E110E030E050E070E081E890E0C5
:1018C0000E940E02232D492D00EE1FEF30E050E064
:1018D0006D817E818F8198850E940E02222D42ECBF
:1018E0000CEB1EEA30E050E06D817E818F8198859F
:1018F0000E940E0282E8682F8D831E8287E88F8304
:10190000188623E34EE301E110E030E050E070E0A0
:1019100090E00E940E02232D40E800EE1FEF30E021
:1019200050E06D817E818F8198850E940E0221E8B2
:10193000442D0CEB1EEA30E050E06D817E818F81FA
:1019400098850E940E0288E8682F8D831E825DE8CC
:10195000F52EE12CFF82E886282D4AE700EE1FEFE6
:1019600030E050E070E08F2D90E00E940E022F2DAD
:10197000F982EA8240EB0CEB1EEA30E050E06D8128
:101980007E818F8198850E940E0242E900EE1FEF52
:1019900029813A8150E06D817E818F8198850E94F6
:1019A0000E028EE8682F8D831E825F821886282D96
:1019B000492D30E050E070E0852D90E00E940E024D
:1019C000272D46EB30E050E06D817E818F81988538
:1019D0000E940E0284E9682F8D831E8299E99F83FD
:1019E0001886262D4EE630E050E070E089E990E060
:1019F0000E940E02272D40EB30E050E06D817E8189
:101A00008F8198850E940E028AE9682F8D831E823D
:101A10008FE98F83188627E542E630E050E070E0DA
:101A200090E00E940E022D2D4AEA30E050E06D81D8
:101A30007E818F8198850E940E0228960FB6F894B9
:101A4000DEBF0FBECDBFDF91CF911F910F91FF90F1
:101A5000EF90DF90CF90BF90AF909F908F907F904E
:101A60006F905F904F903F902F9008952F923F92EC
:101A70004F925F926F927F928F929F92AF92BF929E
:101A8000CF92DF92EF92FF920F931F93CF93DF934A
:101A9000CDB7DEB728970FB6F894DEBF0FBECDBF27
:101AA000823009F0F2C386E1682F8BE19DE5292E93
:101AB000222D48E600EE1FEF30E050E070E090E0AD
:101AC0000E940E028CE1682F81E229E6822E282DE9
:101AD00034E7932E492D30E050E070E090E00E9412
:101AE0000E0282E2682F8D831E8287E28F83188622
:101AF0004FE6442E242D4AE730E050E070E090E0BD
:101B00000E940E0229E98EE9482F30E050E06D81F5
:101B10007E818F8198850E940E0288E2682F8D83D6
:101B20001E828DE28F83188655E7352E232D40E8DF
:101B300030E050E070E090E00E940E0229E94AEAAD
:101B400030E050E06D817E818F8198850E940E0289
:101B50008EE2682F8D831E8283E38F8318862BE7A6
:101B600086E8482F30E050E070E083E390E00E9488
:101B70000E0227E840EB01E110E030E050E06D811B
:101B80007E818F8198850E940E0284E3682F8D8369
:101B90001E8299E39F83188623E34EE330E050E0F2
:101BA00070E089E390E00E940E022BE740E800EE2F
:101BB0001FEF30E050E06D817E818F8198850E941B
:101BC0000E0221E86CEB562E452D01E110E030E0CD
:101BD00050E06D817E818F8198850E940E028AE39C
:101BE000682F8D831E828FE38F83188629E344E458
:101BF00030E050E070E090E00E940E02232D42ECB5
:101C000030E050E06D817E818F8198850E940E02C8
:101C100080E4682F8D831E8275E4C72ECF821886DC
:101C200029E34AE430E050E070E08C2D90E00E941F
:101C30000E02242D40E830E050E06D817E818F81DE
:101C400098850E940E0221E846EB00EE1FEF30E07F
:101C500050E06D817E818F8198850E940E02E7EBB6
:101C60006E2E262DFEECBF2E4B2D01E110E030E054
:101C700050E06D817E818F8198850E940E0286E4FE
:101C8000682F8D831E829BE49F8318862FE340E597
:101C900030E050E070E08BE490E00E940E02282DCE
:101CA000492D30E050E06D817E818F8198850E94C2
:101CB0000E02232DA8ECFA2E4F2D00EE1FEF30E080
:101CC00050E06D817E818F8198850E940E02B9EC73
:101CD000AB2E2A2D44ED30E050E06D817E818F8166
:101CE00098850E940E028CE4682F8D831E8281E508
:101CF0008F8318862C2D46E501E110E030E050E09E
:101D000070E090E00E940E0223E64EE630E050E0E4
:101D10006D817E818F8198850E940E02242D452D34
:101D200000EE1FEF30E050E06D817E818F8198855D
:101D30000E940E021DEB712E272D4F2D00E014E89E
:101D400030E050E06D817E818F8198850E940E0287
:101D50002A2D4B2D00EE1FEF30E050E06D817E818B
:101D60008F8198850E940E028FECE82E2E2D44ED77
:101D700030E050E06D817E818F8198850E940E0257
:101D800082E5682F8D831E8287E58F8318862C2D30
:101D900046E501E110E030E050E070E090E00E94A4
:101DA0000E02222D42E630E050E06D817E818F816F
:101DB00098850E940E0223E6492D00EE1FEF30E0C9
:101DC00050E06D817E818F8198850E940E02232DC7
:101DD00046EB0CEB1EEA30E050E06D817E818F8196
:101DE00098850E940E02262D452D00E014E830E073
:101DF00050E06D817E818F8198850E940E02272D93
:101E00004F2D00E010E030E050E06D817E818F8149
:101E100098850E940E022A2D4B2D00E014E830E038
:101E200050E06D817E818F8198850E940E022E2D5B
:101E300044ED00EE1FEF30E050E06D817E818F8138
:101E400098850E940E0285ED282F9AEDD92E4D2DF2
:101E500001E110E030E050E06D817E818F81988556
:101E60000E940E0288E5682F8D831E822F821886BD
:101E70002BE44CE530E050E070E0822D90E00E94D1
:101E80000E02222D48E600EE1FEF30E050E06D819B
:101E90007E818F8198850E940E02282D46EB0CEBE7
:101EA0001EEA30E050E06D817E818F8198850E942E
:101EB0000E02262D452D00E014E830E050E06D8143
:101EC0007E818F8198850E940E02272D4F2D00E084
:101ED00010E030E050E06D817E818F8198850E9416
:101EE0000E022A2D4B2D00E014E830E050E06D8109
:101EF0007E818F8198850E940E022E2D4D2D0CEB38
:101F00001EEA30E050E06D817E818F8198850E94CD
:101F10000E028EE5682F8D831E8293E69F831886BE
:101F20002BE44CE501E110E030E050E070E083E6A6
:101F300090E00E940E02222D4D2D0CEB1EEA30E0A7
:101F400050E06D817E818F8198850E940E0284E62B
:101F5000682F8D831E828F8218862C2D46E501E125
:101F600010E030E050E070E0882D90E00E940E021A
:101F7000222D42E90CEB1EEA30E050E06D817E81BB
:101F80008F8198850E940E0223E9622E262D4AEA4F
:101F900000E114E830E050E06D817E818F8198850A
:101FA0000E940E023BEA732E272D4F2D0CEB1EEAEA
:101FB00030E050E06D817E818F8198850E940E0215
:101FC0002A2D4B2D00E018EF30E050E06D817E812E
:101FD0008F8198850E940E022E2D4D2D0CEB1EEA4E
:101FE00030E050E06D817E818F8198850E940E02E5
:101FF0008AE6682F8D831E824F8218862C2D46E537
:1020000001E110E030E050E070E0842D90E00E94AB
:102010000E0223E64AE70CEB1EEA30E050E06D8149
:102020007E818F8198850E940E022BE784EA482FDB
:1020300000E114E830E050E06D817E818F81988569
:102040000E940E0245EAC42E2C2D4D2DDB821C82EF
:102050000CEB1EEA30E050E06D817E818F81988527
:102060000E940E022E2D00E018EF30E04B815C81C3
:102070006D817E818F8198850E940E0280E7682F96
:102080008D831E823F8218862FE340E501E110E038
:1020900030E050E070E0832D90E00E940E02282D89
:1020A00044ED0CEB1EEA30E050E06D817E818F81C3
:1020B00098850E940E0286E7682F8D831E828BE72B
:1020C0008F83188629E34AE401E110E030E050E014
:1020D00070E090E00E940E02242D4F2D0CEB1EEAC2
:1020E00030E050E06D817E818F8198850E940E02E4
:1020F0008CE7682F8D831E8291E89F83188629E3E1
:1021000044E401E110E030E050E070E081E890E06C
:102110000E940E02242D492D00EE1FEF30E050E00A
:102120006D817E818F8198850E940E02232D42EC65
:102130000CEB1EEA30E050E06D817E818F81988546
:102140000E940E0282E8682F8D831E8287E88F83AB
:10215000188623E34EE301E110E030E050E070E048
:1021600090E00E940E02242D40E800EE1FEF30E0C8
:1021700050E06D817E818F8198850E940E0221E85A
:10218000452D0CEB1EEA30E050E06D817E818F81A1
:1021900098850E940E0288E8682F8D831E825DE874
:1021A000F52EE12CFF82E886282D4AE700EE1FEF8E
:1021B00030E050E070E08F2D90E00E940E022F2D55
:1021C000F982EA8240EB0CEB1EEA30E050E06D81D0
:1021D0007E818F8198850E940E0242E900EE1FEFFA
:1021E00029813A8150E06D817E818F8198850E949E
:1021F0000E028EE8682F8D831E826F821886282D2E
:10220000492D30E050E070E0862D90E00E940E02F3
:10221000272D46EB30E050E06D817E818F819885DF
:102220000E940E0284E9682F8D831E8299E99F83A4
:102230001886222D4EE630E050E070E089E990E00B
:102240000E940E02272D40EB30E050E06D817E8130
:102250008F8198850E940E028AE9682F8D831E82E5
:102260008FE98F83188627E542E630E050E070E082
:1022700090E00E940E022C2D4AEA30E050E06D8181
:102280007E818F8198850E940E0228960FB6F89461
:10229000DEBF0FBECDBFDF91CF911F910F91FF9099
:1022A000EF90DF90CF90BF90AF909F908F907F90F6
:1022B0006F905F904F903F902F9008952091D6029D
:1022C0003091D702232B11F40C94360D0C94F7089F
:1022D0000E9410030E94F31364E070E00E94511208
:1022E0000E9446088AE090E09093C2028093C10267
:1022F0001092C00281E08093D5020E94710782E0B3
:102300000E945E1116BC85E085BD8091D802909137
:10231000D9020E94F71311E004E0C4E0D0E0A899CC
:1023200060C08091C1029091C202892B81F40E9409
:10233000F313BE010E9451128093D6029093D702EC
:102340000E9446080E94A10582E00E945E1180E082
:1023500090E00E94360588E00E947C05882391F079
:1023600080E090E00E9471078091D5028F5F8530F8
:1023700019F08093D50202C01093D50280EE9FEF32
:102380000E94710780E20E947C05882389F080E02A
:1023900090E00E9471078091D502815019F08093DE
:1023A000D50202C00093D50280EE9FEF0E94710714
:1023B00080E80E947C05882349F08091D5020E9424
:1023C000B9080E94A10582E00E945E118091C002BE
:1023D0008F5F833019F08093C002A1CF1092C002AA
:1023E0009ECF16BC15BB8091C1029091C20201978D
:1023F0009093C2028093C1020E94A10590CF82E710
:1024000097E99093CE028093CD021092D002109261
:10241000CF0283EB91E00E94BD0482EF91E00E9425
:10242000BD0480E292E00E94BD0480E592E00E943B
:10243000BD0480EF91E00E94BD048BE992E00E9410
:10244000BD048091D8029091D902A091DA02B09196
:10245000DB020196A11DB11D8093D8029093D90291
:10246000A093DA02B093DB0280E090E00E94360590
:1024700080E80E947C05882321F30E946811109255
:10248000D8021092D9021092DA021092DB020E9456
:10249000460381E090E00E9464010E94F9040E94DA
:1024A000FF1197FB072E16F4009407D077FD09D093
:1024B0000E94651207FC05D03EF4909581959F4FD0
:1024C0000895709561957F4F0895AA1BBB1B51E13C
:1024D00007C0AA1FBB1FA617B70710F0A61BB70B94
:1024E000881F991F5A95A9F780959095BC01CD0139
:1024F00008950E948D120C946E130E94671358F079
:102500000E94601340F029F45F3F29F00C945713A8
:1025100051110C94A2130C945D130E947F1368F365
:102520009923B1F3552391F3951B550BBB27AA278C
:1025300062177307840738F09F5F5F4F220F331FC6
:10254000441FAA1FA9F335D00E2E3AF0E0E832D08E
:1025500091505040E695001CCAF72BD0FE2F29D091
:10256000660F771F881FBB1F261737074807AB0763
:10257000B0E809F0BB0B802DBF01FF2793585F4FD8
:102580003AF09E3F510578F00C9457130C94A21327
:102590005F3FE4F3983ED4F3869577956795B795BA
:1025A000F7959F5FC9F7880F911D9695879597F9C5
:1025B0000895E1E0660F771F881FBB1F621773073E
:1025C0008407BA0720F0621B730B840BBA0BEE1F53
:1025D00088F7E09508950E94871388F09F5798F038
:1025E000B92F9927B751B0F0E1F0660F771F881F18
:1025F000991F1AF0BA95C9F714C0B13091F00E9432
:10260000A113B1E008950C94A113672F782F8827A8
:10261000B85F39F0B93FCCF3869577956795B39558
:10262000D9F73EF490958095709561957F4F8F4FC7
:102630009F4F0895E89409C097FB3EF490958095CC
:10264000709561957F4F8F4F9F4F9923A9F0F92F78
:1026500096E9BB279395F695879577956795B795F6
:10266000F111F8CFFAF4BB0F11F460FF1BC06F5FDC
:102670007F4F8F4F9F4F16C0882311F096E911C0EE
:10268000772321F09EE8872F762F05C0662371F00F
:1026900096E8862F70E060E02AF09A95660F771F23
:1026A000881FDAF7880F9695879597F9089597F917
:1026B0009F6780E870E060E008959FEF80EC0895E8
:1026C00000240A9416161706180609060895002411
:1026D0000A9412161306140605060895092E03948B
:1026E000000C11F4882352F0BB0F40F4BF2B11F4FF
:1026F00060FF04C06F5F7F4F8F4F9F4F089557FD5E
:102700009058440F551F59F05F3F71F04795880F5F
:1027100097FB991F61F09F3F79F0879508951216F6
:1027200013061406551FF2CF4695F1DF08C01616A2
:1027300017061806991FF1CF869571056105089453
:102740000895E894BB2766277727CB0197F908956A
:102750008F929F92AF92BF92CF92DF92EF92FF92B1
:10276000CF93DF93EC01688179818A819B81611528
:1027700071058105910521F464E279ED8BE597E01F
:102780002DE133EF41E050E00E94371449015A0136
:102790009B01AC01A7EAB1E40E9456146B017C01D5
:1027A000ACEEB4EFA50194010E946414DC01CB01EE
:1027B0008C0D9D1DAE1DBF1DB7FF03C00197A10964
:1027C000B04888839983AA83BB839F77DF91CF9199
:1027D000FF90EF90DF90CF90BF90AF909F908F9041
:1027E00008950C94A81380E091E00C94A813A0E045
:1027F000B0E08093000190930101A0930201B09397
:1028000003010895BB274A3031F4992322F4BDE235
:10281000909581959F4F0C940E14BB27FB01552773
:10282000AA27880F991FAA1FA41710F0A41B83952D
:102830005051B9F7A05DAA3308F0A95DA1930097A4
:1028400079F7B111B1931192CB010C942714DC01EB
:10285000FC01672F71917723E1F7329704C07C91D7
:102860006D9370836291AE17BF07C8F30895052E6C
:1028700097FB1EF400940E944E1457FD07D00E944F
:10288000691407FC03D04EF40C944E1450954095F7
:10289000309521953F4F4F4F5F4F0895909580950C
:1028A000709561957F4F8F4F9F4F08950E948B14B5
:1028B000A59F900DB49F900DA49F800D911D112494
:1028C0000895B7FF0C9456140E945614821B930B64
:1028D0000895A1E21A2EAA1BBB1BFD010DC0AA1F61
:1028E000BB1FEE1FFF1FA217B307E407F50720F079
:1028F000A21BB30BE40BF50B661F771F881F991FF4
:102900001A9469F760957095809590959B01AC013C
:10291000BD01CF010895A29FB001B39FC001A39F45
:10292000700D811D1124911DB29F700D811D112408
:08293000911D0895F894FFCFFA
:102938000100000046454544004D45212100485509
:10294800470057414C4B00574153480049274D20F9
:102958005354415256494E47212100646F20752037
:102968006576656E206C7576206D650069206C6FE4
:102978006F6B2066617420706967006D79206669E5
:102988006E73206973207374616E6B79006D6D6D61
:1029980020636869636B656E21002A637564646CE3
:1029A80065732A2A627562626C65732A00776F6F95
:1029B80066210069206665656C206672657368210A
:1029C8000075686D6D2E2E206E6F207468616E6BB9
:1029D800730069276D206479696E67206865726580
:1029E80021210057656C636F6D6520746F20545505
:1029F8004E41474F544348492E20546865206E6520
:102A08006564696573742074616D61676F74636868
:102A18006920696E2074686520776F726C64212163
:102A28000A00546869732074756E612069732061A7
:102A38006C776179732032207374657073206177C5
:102A480061792066726F6D2064656174682E0A0072
:102A5800497420616C736F2074656E647320746FA1
:102A6800206265206472616D617469632061626FC0
:102A780075742065766572797468696E672E0A00C8
:102A880054756E61207374696C6C206C6F76657315
:102A980020796F7520776974682069747320746968
:102AA8006E7920666973682068656172742C20628B
:102AB800757420686173206465657020696E73653C
:102AC80063757269746965732E0A00507265737351
:102AD800204F4B20696620796F75206C6F766520D2
:0C2AE80054756E61206261636B2E0A0061
:00000001FF
