:100000000C943A010C9459010C9459010C94590127
:100010000C9459010C9459010C9459010C945901F8
:100020000C9459010C9459010C9459010C945901E8
:100030000C9459010C9459010C9459010C945901D8
:100040000C9459010C9459010C9459010C945901C8
:100050000C9459010C9459010C9459010C945901B8
:100060000C9459010C9459010C9459010C945901A8
:100070000C9459010C9459010C9459010C94590198
:100080000C9459010C9459010C9459010C94590188
:100090000C9459010C945901000000000000005F0D
:1000A00000000003000300143E143E14242A7F2A9B
:1000B000124333086661364955225000050300009B
:1000C000001C2241000041221C0014083E081408B4
:1000D000083E0808005030000008080808080060C2
:1000E00060000020100804023E5149453E00040211
:1000F0007F00426151494622414949361814127F16
:100100001027454545393E494949320101710907E2
:100110003649494936264949493E003636000000ED
:10012000563600000814224100141414141400411F
:1001300022140802015109063E4159555E7E090903
:10014000097E7F494949363E414141227F41414133
:100150003E7F494949417F090909013E4141493AE8
:100160007F0808087F00417F4100304040403F7FCA
:10017000081422417F404040407F020C027F7F02F2
:1001800004087F3E4141413E7F090909061E2121A5
:10019000215E7F09090976264949493201017F011B
:1001A000013F4040403F1F2040201F7F2010207F04
:1001B00041221C224107087008076151494543004C
:1001C0007F41000002040810200000417F0004026B
:1001D0000102044040404040000102040020545409
:1001E00054787F4444443838444444443844444474
:1001F0007F385454541804047E0505085454543C64
:100200007F0804047800447D40002040443D007F86
:100210001028440000417F40007C047804787C086A
:1002200004047838444444387C1414140808141422
:10023000147C007C080404485454542004043F44B3
:10024000443C4040207C1C2040201C3C4030403C32
:1002500044281028440C5050503C4464544C4400F2
:100260000836414100007F0000414136080002018C
:100270000204020011241FBECFEFD0E2DEBFCDBFCB
:1002800012E0A0E0B1E0E8E6FCE100E00BBF02C054
:1002900007900D92A230B107D9F722E0A2E0B2E0B8
:1002A00001C01D92AC31B207E1F70E94C60C0C945C
:1002B000320E0C94000093E89093B00091E090937C
:1002C000B1008093B300089590930D0280930C02C7
:1002D00026E330E020930040009779F480EF90E02F
:1002E000909309028093080280E491E090930B02BE
:1002F00080930A0288E490E034C08130910579F45B
:1003000080E491E0909309028093080280EF90E0EE
:1003100090930B0280930A0288EE90E022C0823014
:10032000910579F480EF90E09093090280930802A0
:1003300080E491E090930B0280930A0288E890E0B9
:1003400010C0039781F480E491E0909309028093B8
:10035000080280EF90E090930B0280930A0288E2FB
:1003600090E0809300418AE290E08093004020E09A
:1003700030E0309300412093004180910802909139
:100380000902019790930041809300418BE290E035
:1003900080930040309300412093004180910A02F5
:1003A00090910B0201979093004180930041089532
:1003B000CF93873748F4883048F08D3350F48F312D
:1003C00050F4803150F403C086E703C088E0C3E0F6
:1003D00005C0C0E003C0C1E001C0C2E021EB30E0D5
:1003E00020930040C0930041682F70E080E090E0CF
:1003F0000E94710D9B01AC0160E070E080EF94E41D
:100400000E94CE0C0E94400D70E002C07595679569
:10041000CA95E2F760930041CF9108950F931F931F
:10042000CF93DF93CDB7DEB728970FB6F894DEBF32
:100430000FBECDBF29833A834B835C836D837E835C
:100440008F83988769817A812B813C814D815E8180
:100450008F819885EAE2F0E0E093004070930041DC
:10046000609300413093004120930041EBE2F0E0C3
:10047000E09300405093004140930041909300412D
:1004800080930041ECE2F0E0E09300402F5F3F4FAB
:10049000261B370B0196841B950B2817390790F400
:1004A000482F4770429FB001439F700D112453E0C5
:1004B000969587955A95E1F7829FA001839F500DED
:1004C000112411C0422F4770489FB001499F700D01
:1004D000112443E0369527954A95E1F7289FA0011E
:1004E000299F500D1124862F8770815028F010937A
:1004F000004100930041F9CFCB0123E09695879509
:100500002A95E1F7840F951F019708F11093004198
:10051000009300411093004100930041109300416B
:10052000009300411093004100930041109300415B
:10053000009300411093004100930041109300414B
:10054000009300411093004100930041DDCF2896B5
:100550000FB6F894DEBF0FBECDBFDF91CF911F91D4
:100560000F910895EF92FF920F931F93CF93DF9314
:10057000CDB7DEB728970FB6F894DEBF0FBECDBF5C
:1005800029833A834B835C836D837E838F83988733
:1005900089819A81EB80FC806D817E81AF81B885F5
:1005A0002AE230E020930040909300418093004184
:1005B000F0920041E09200412BE230E020930040B5
:1005C0007093004160930041B0930041A0930041BB
:1005D0002CE230E020930040E816F906A0F0A801D4
:1005E0009B018A01A217B30760F04E5F5F4FF801CD
:1005F0000081118110930041009300412F5F3F4F14
:10060000F0CF0196E9CF28960FB6F894DEBF0FBE63
:10061000CDBFDF91CF911F910F91FF90EF90089583
:100620000F931F93CF93DF93CDB7DEB728970FB605
:10063000F894DEBF0FBECDBFE8E0F2E0178216826D
:10064000118610861A821982808191810197482F24
:100650009C838B831E821D82828193810197988760
:100660008F830485158520E03A815C8160E07E817E
:1006700098850E940E0228960FB6F894DEBF0FBE32
:10068000CDBFDF91CF911F910F91089586E08093A8
:10069000750080E8809374003F9A249A8FEC97E06D
:1006A0000197F1F700C0000047988FE39CE901979C
:1006B000F1F700C00000479A9FEF2DEE82E09150C5
:1006C00020408040E1F700C0000088E290E0809385
:1006D000004081E190E0809300409FEF26E781E0B9
:1006E000915020408040E1F700C0000021E030E060
:1006F0008BEC90E0809300402093004180EC90E0F0
:100700008093004088E096E29093004180930041FE
:1007100020E130E081EC90E08093004020930041A4
:1007200085EC90E0809300408EE395E39093004148
:100730008093004125EB30E087EC90E0809300400F
:100740002093004121E030E086EF90E0809300406C
:100750002093004180E090E090930041809300411D
:1007600025E530E08AE390E080930040209300414B
:1007700081E090E00E9464010E941003E8E0F2E052
:100780001782168211861086158614868FEF9FEFCA
:100790009387828789E290E0809300409FE728E377
:1007A00081E0915020408040E1F700C0000020E04F
:1007B00030E085E390E08093004020930041EAE63A
:1007C000F0E08081806280832C9A08959F92AF929E
:1007D000BF92CF92DF92EF92FF920F931F93CF932E
:1007E000DF9320911002309111028A30F9F41092B7
:1007F0000F0210920E02285F3F4F30931102209398
:10080000100280910A0290910B022817390708F410
:10081000A8C0DF91CF911F910F91FF90EF90DF90D3
:10082000CF90BF90AF909F900C94100390EE980FD4
:100830009F3508F096C060910E0270910F02A901D9
:10084000495F5F4F082E000C990B8097E5E0E89F09
:10085000E001E99FD00D11248BE290E080930040ED
:100860003093004120930041509300414093004158
:10087000CB01DB0114960AE210E0ECE2EE2EF12C43
:10088000A817B90780F1009300409093004180932E
:1008900000419093004180930041E0920040FC01B0
:1008A000E61BF70BEC0FFD1FE856FF4F9490690114
:1008B000F1E04C155D05A8F0BF2EB92029F0A090FD
:1008C0001202B090130204C0A0901402B09015025E
:1008D000B0920041A0920041EFEFCE1ADE0AFF0F66
:1008E000E8CF0196CDCF6AE270E06093004090932C
:1008F00000418093004190930041809300418CE23D
:1009000090E0809300404217530758F08091140202
:100910009091150290930041809300412F5F3F4FCB
:10092000F2CF80910E0290910F029C012A5F3F4FFF
:1009300030930F0220930E020B9620910802309103
:1009400009028217930768F010920F0210920E02AC
:100950008091100290911102089690931102809359
:100960001002DF91CF911F910F91FF90EF90DF90D8
:10097000CF90BF90AF909F9008950F931F93CF9308
:100980008C01C0E0F801EC0FF11D8081882321F07B
:100990000E94E603CF5FF6CFCF911F910F9108958C
:1009A000E8E0F2E097838683718760870895E8E046
:1009B000F2E0938782877587648708950F931F936A
:1009C000CF938C0170930F0260930E02509311022B
:1009D00040931002C0E0F801EC0FF11D80818823E4
:1009E00021F00E94E603CF5FF6CFCF911F910F91C8
:1009F00008958DB18F7C8DB98EB180638EB987B12A
:100A0000837C87B988B18C6388B96F98779A87B1EE
:100A1000837C87B988B18C6388B90895AC01F89458
:100A20009CB195FF02C023E001C020E094FF02C00A
:100A300081E0282790910502921B90FF09C0209326
:100A400005022091190292702150920F9093190281
:100A50007894CA010895F89480911902909119022E
:100A6000917090931902789485950895AC01F8944B
:100A700096B18CB123B130911802906C8F67982396
:100A80002F6B922390953927209104022323922FD4
:100A90009095909304022091030223232927209309
:100AA00003029323922380911802892780931802CE
:100AB00020911802809116029223982B909316028F
:100AC000809118028C7F19F48CE38093020280914C
:100AD0000202815019F0809302020BC08AE08093D9
:100AE000020280911802909117028C7F892B8093CB
:100AF00017027894CA010895F894909116028923F8
:100B00009091160298279093160278940895F8947D
:100B100090911702892390911702982790931702BA
:100B2000789408959091180289230895F8949091EB
:100B30001802909589230C947C050E9487050C94DB
:100B40007C05CF93DF9300D000D000D0CDB7DEB7C7
:100B500080911B02811109C08FEF9FEF90931302C8
:100B60008093120280E094E008C08FEF9FEF909393
:100B700013028093120280E098EF90931502809305
:100B80001402809107024AE0BE016F5F7F4F90E040
:100B90000E94FD0D44EB50E066E970E0CE01019645
:100BA0000E94DE0426960FB6F894DEBF0FBECDBFBE
:100BB000DF91CF91089508950F931F93CF93DF9303
:100BC000CDB7DEB728970FB6F894DEBF0FBECDBF06
:100BD00080EE9FEF909313028093120280E098EFD3
:100BE000909315028093140286EE90E098878F838D
:100BF00080911B02813011F58FE5482F8B831C8279
:100C00008DE2282F89831A828EEB682F8D831E82B6
:100C100000E018EF30E050E070E08F8198850E948E
:100C20000E0248EC50E06CE370E080E091E00E943E
:100C3000DE0445ED50E06CE370E06CC0823011F5ED
:100C40008BE9482F8B831C8289E6282F89831A829F
:100C50008EEB682F8D831E8200E018EF30E050E0AD
:100C600070E08F8198850E940E0248EC50E068E7A2
:100C700070E08AE091E00E94DE0445ED50E068E714
:100C800070E048C0833011F587ED482F8B831C82BC
:100C900085EA282F89831A828EEB682F8D831E8226
:100CA00000E018EF30E050E070E08F8198850E94FE
:100CB0000E0248EC50E064EB70E08EE091E00E94A0
:100CC000DE0445ED50E064EB70E024C0843081F533
:100CD00083E1482F8B8381E08C8381EE282F8983E9
:100CE0001A828EEB682F8D831E8200E018EF30E0B1
:100CF00051E070E08F8198850E940E0248EC50E030
:100D000060EF70E083E191E00E94DE0445ED50E089
:100D100060EF70E085E091E028960FB6F894DEBFB2
:100D20000FBECDBFDF91CF911F910F910C94DE04C8
:100D300028960FB6F894DEBF0FBECDBFDF91CF91DE
:100D40001F910F9108958F929F92AF92BF92CF9271
:100D5000DF92EF92FF920F931F93CF93DF93CDB764
:100D6000DEB728970FB6F894DEBF0FBECDBF5C018B
:100D700080911A02813049F0823051F0833059F06D
:100D8000843059F436E122E608C032E62AE205C092
:100D90003EE926E602C03AED22EA8BEB982E812C42
:100DA000692D9D828E828CEBC22ED12CDA82C98273
:100DB000E32EF12C432FFC82EB8285013A815C818A
:100DC00070E090E00E940E0289EE8F8318869FEFFC
:100DD000C91AD90A4C2DDC82CB8229813A815C81E7
:100DE0006D817E8190E00E940E0288EE682F4E2D6C
:100DF000FC82EB8229813A815C8170E08F81988549
:100E00000E940E02692D81E0E81AF1082E2DFA8267
:100E1000E9823A814B815C8170E08F8198850E94E4
:100E20000E0228960FB6F894DEBF0FBECDBFDF913D
:100E3000CF911F910F91FF90EF90DF90CF90BF90D7
:100E4000AF909F908F9008950F931F93CF93DF9350
:100E5000CDB7DEB728970FB6F894DEBF0FBECDBF73
:100E6000E8E0F2E080EE9FEF9387828782EB98EFD5
:100E70009587848786EE8F8318869FE5492F9DE2AC
:100E8000292F9EEB692F9D831E8202EB18EF30E025
:100E900050E070E090E00E940E0248EC50E06CE3FD
:100EA00070E080E091E00E94DE0445ED50E06CE3EC
:100EB00070E085E091E00E94DE048BE9482F89E62E
:100EC000282F30E050E06D817E818F8198850E94CF
:100ED0000E0248EC50E068E770E08AE091E00E9482
:100EE000DE0445ED50E068E770E085E091E00E94A7
:100EF000DE0487ED482F85EA282F30E050E06D8131
:100F00007E818F8198850E940E0248EC50E064EB50
:100F100070E08EE091E00E94DE0445ED50E064EB6D
:100F200070E085E091E00E94DE0483E1482F8B832E
:100F300081E08C8381EE282F89831A8230E051E092
:100F40006D817E818F8198850E940E0248EC50E071
:100F500060EF70E083E191E00E94DE0445ED50E037
:100F600060EF70E085E091E00E94DE040E94DC0505
:100F700028960FB6F894DEBF0FBECDBFDF91CF919C
:100F80001F910F910C94A30680E090E00C94A306AF
:100F9000EF92FF920F931F93CF93DF93CDB7DEB7FE
:100FA00028970FB6F894DEBF0FBECDBF7C01E8E0F6
:100FB000F2E0138612868FEF9FEF958784878FE08C
:100FC000682F8D831E8288E28F83188698EC292FE4
:100FD00099831A8290E4492F9B8391E09C830FEFC1
:100FE0001FEF30E051E070E090E00E940E0247E118
:100FF00050E062ED70E0C70128960FB6F894DEBFAE
:101000000FBECDBFDF91CF911F910F91FF90EF9059
:101010000C94DE04813029F480931B0288E191E076
:1010200014C0823029F480931B028AE391E00DC042
:10103000833029F480931B028FE591E006C0843051
:1010400031F480931B028AE891E00C94C80708955C
:1010500010921B02813019F48CE991E004C08230B7
:1010600041F48CEB91E00E94C807809107028D5FEC
:101070000EC0833019F48EED91E004C0843049F441
:1010800084EE91E00E94C807809107028E5F8093F2
:10109000070208952F923F924F925F926F927F9234
:1010A0008F929F92AF92BF92CF92DF92EF92FF9278
:1010B0000F931F93CF93DF93CDB7DEB728970FB66B
:1010C000F894DEBF0FBECDBF86E1682F8BE19DE5B2
:1010D000292E222D48E600EE1FEF30E050E070E0B0
:1010E00090E00E940E028CE1682F81E229E6822EB8
:1010F000282D34E7932E492D30E050E070E090E049
:101100000E940E0282E2682F8D831E8287E28F8307
:1011100018864FE6442E242D4AE730E050E070E078
:1011200090E00E940E0229E98EE9482F30E050E05D
:101130006D817E818F8198850E940E0288E2682FE2
:101140008D831E828DE28F83188655E7352E232DE1
:1011500040E830E050E070E090E00E940E0229E9A3
:101160004AEA30E050E06D817E818F8198850E944F
:101170000E028EE2682F8D831E8283E38F83188692
:101180002BE786E8482F30E050E070E083E390E002
:101190000E940E0227E840EB01E110E030E050E051
:1011A0006D817E818F8198850E940E0284E3682F75
:1011B0008D831E8299E39F83188623E34EE330E0FC
:1011C00050E070E089E390E00E940E022BE740E8D7
:1011D00000EE1FEF30E050E06D817E818F819885B9
:1011E0000E940E0221E86CEB562E452D01E110E025
:1011F00030E050E06D817E818F8198850E940E02E3
:101200008AE3682F8D831E828FE38F83188629E3FC
:1012100044E430E050E070E090E00E940E02232DA4
:1012200042EC30E050E06D817E818F8198850E9494
:101230000E0280E4682F8D831E8275E4B72EBF8274
:10124000188629E34AE430E050E070E08B2D90E00E
:101250000E940E02242D40E830E050E06D817E8136
:101260008F8198850E940E0221E846EB00EE1FEF69
:1012700030E050E06D817E818F8198850E940E0262
:10128000E7EB6E2E262DFEECEF2E4E2D01E110E049
:1012900030E050E06D817E818F8198850E940E0242
:1012A00086E4682F8D831E829BE49F8318862FE33C
:1012B00040E530E050E070E08BE490E00E940E02E8
:1012C000282D492D30E050E06D817E818F819885F9
:1012D0000E940E02232DA8ECFA2E4F2D00EE1FEFD8
:1012E00030E050E06D817E818F8198850E940E02F2
:1012F000B9ECAB2E2A2D44ED30E050E06D817E81BB
:101300008F8198850E940E028CE4682F8D831E8247
:1013100081E58F8318862B2D46E501E110E030E052
:1013200050E070E090E00E940E0223E64EE630E0CE
:1013300050E06D817E818F8198850E940E02242D60
:10134000452D00EE1FEF30E050E06D817E818F81F2
:1013500098850E940E021DEB712E272D4F2D00E067
:1013600014E830E050E06D817E818F8198850E9485
:101370000E022A2D4E2D00EE1FEF30E050E06D8161
:101380007E818F8198850E940E028FECC82E2C2DB5
:1013900044ED30E050E06D817E818F8198850E9420
:1013A0000E0282E5682F8D831E8287E58F83188663
:1013B0002B2D46E501E110E030E050E070E090E0D8
:1013C0000E940E02222D82E6482F30E050E06D810F
:1013D0007E818F8198850E940E0223E6492D00EEC2
:1013E0001FEF30E050E06D817E818F8198850E94F3
:1013F0000E02232D46EB0CEB1EEA30E050E06D812F
:101400007E818F8198850E940E02262D452D00E059
:1014100014E830E050E06D817E818F8198850E94D4
:101420000E02272D4F2D00E010E030E050E06D81DE
:101430007E818F8198850E940E022A2D4E2D00E01C
:1014400014E830E050E06D817E818F8198850E94A4
:101450000E022C2D44ED00EE1FEF30E050E06D81C8
:101460007E818F8198850E940E0285ED282F9AED4E
:10147000D92E4D2D01E110E030E050E06D817E81EC
:101480008F8198850E940E0288E5682F8D831E82C9
:101490002F8218862BE44CE530E050E070E0822D7E
:1014A00090E00E940E02222D48E600EE1FEF30E091
:1014B00050E06D817E818F8198850E940E02282DDB
:1014C00046EB0CEB1EEA30E050E06D817E818F81AF
:1014D00098850E940E02262D452D00E014E830E08C
:1014E00050E06D817E818F8198850E940E02272DAC
:1014F0004F2D00E010E030E050E06D817E818F8163
:1015000098850E940E022A2D4E2D00E014E830E04E
:1015100050E06D817E818F8198850E940E022C2D76
:101520004D2D0CEB1EEA30E050E06D817E818F8105
:1015300098850E940E028EE5682F8D831E8283E6B9
:101540008F8318862BE44CE501E110E030E050E099
:1015500070E090E00E940E02222D4D2D0CEB1EEA51
:1015600030E050E06D817E818F8198850E940E026F
:1015700084E6682F8D831E828F8218862B2D46E588
:1015800001E110E030E050E070E0882D90E00E9432
:101590000E02222D42E90CEB1EEA30E050E06D8194
:1015A0007E818F8198850E940E0223E9622E262D6E
:1015B0004AEA00E114E830E050E06D817E818F81DD
:1015C00098850E940E023BEA732E272D4F2D0CEBBF
:1015D0001EEA30E050E06D817E818F8198850E9407
:1015E0000E022A2D4E2D00E018EF30E050E06D8104
:1015F0007E818F8198850E940E022C2D4D2D0CEB43
:101600001EEA30E050E06D817E818F8198850E94D6
:101610000E028AE6682F8D831E824F8218862B2D3C
:1016200046E501E110E030E050E070E0842D90E00C
:101630000E940E0223E64AE70CEB1EEA30E050E07F
:101640006D817E818F8198850E940E022BE784EA4E
:10165000482F00E114E830E050E06D817E818F81F9
:1016600098850E940E0285EA282F4E2D0CEB1EEA6B
:1016700030E050E06D817E818F8198850E940E025E
:101680002C2D4D2D00E018EF30E050E06D817E8173
:101690008F8198850E940E0280E7682F8D831E82BD
:1016A0003F8218862FE340E501E110E030E050E092
:1016B00070E0832D90E00E940E02282D44ED0CEB8B
:1016C0001EEA30E050E06D817E818F8198850E9416
:1016D0000E0286E7682F8D831E829BE79F83188604
:1016E00029E34AE401E110E030E050E070E08BE7EC
:1016F00090E00E940E02242D4F2D0CEB1EEA30E0EC
:1017000050E06D817E818F8198850E940E028CE76A
:10171000682F8D831E8281E88F83188629E344E435
:1017200001E110E030E050E070E090E00E940E0235
:10173000242D492D00EE1FEF30E050E06D817E81B9
:101740008F8198850E940E02232D42EC0CEB1EEA3D
:1017500030E050E06D817E818F8198850E940E027D
:1017600082E8682F8D831E8297E89F83188623E383
:101770004EE301E110E030E050E070E087E890E0F7
:101780000E940E02242D40E800EE1FEF30E050E0F2
:101790006D817E818F8198850E940E0221E8452D02
:1017A0000CEB1EEA30E050E06D817E818F819885E0
:1017B0000E940E0288E8682F8D831E824DE8F42E69
:1017C000E12CFF82E886282D4AE700EE1FEF30E08B
:1017D00050E070E08F2D90E00E940E022F2DF982D4
:1017E000EA8240EB0CEB1EEA30E050E06D817E8136
:1017F0008F8198850E940E0242E900EE1FEF298139
:101800003A8150E06D817E818F8198850E940E0221
:101810008EE8682F8D831E826F821886282D492DB1
:1018200030E050E070E0862D90E00E940E02272DFF
:1018300046EB30E050E06D817E818F8198850E947B
:101840000E0284E9682F8D831E8289E98F831886B2
:10185000222D4EE630E050E070E090E00E940E0253
:10186000272D40EB30E050E06D817E818F8198859F
:101870000E940E028AE9682F8D831E828FE98F8372
:10188000188697E5292F92E6492F30E050E070E066
:1018900090E00E940E0285EA282F8AEA482F30E065
:1018A00050E06D817E818F8198850E940E0228967E
:1018B0000FB6F894DEBF0FBECDBFDF91CF911F9161
:1018C0000F91FF90EF90DF90CF90BF90AF909F90DF
:1018D0008F907F906F905F904F903F902F900895E2
:1018E00084E00E940A0880EE8093070210920602AC
:1018F00081E080931A0280911B0261E070E090E029
:101900000E94240780E00E944A08789480E090E0DA
:101910000E94360580E10E947C05882369F080E002
:1019200090E00E94A30680911A028F5F80931A02B2
:1019300080EE9FEF0E94A30684E00E947C0588232E
:1019400079F080E090E00E94A30680911A02815015
:1019500009F484E080931A0280EE9FEF0E94A306B0
:1019600080910702815080930702809106028F5F69
:1019700080930602833049F610920602C6CF9091FA
:101980001B02911102C00C944A0808950E9446035C
:1019900081E090E00E9464010E94700C0E94E20CC1
:1019A0000C94C30D0E94BC0D58F00E94B50D40F080
:1019B00029F45F3F29F00C94AC0D51110C94F70DF4
:1019C0000C94B20D0E94D40D68F39923B1F3552302
:1019D00091F3951B550BBB27AA2762177307840742
:1019E00038F09F5F5F4F220F331F441FAA1FA9F3D8
:1019F00035D00E2E3AF0E0E832D091505040E695C6
:101A0000001CCAF72BD0FE2F29D0660F771F881F26
:101A1000BB1F261737074807AB07B0E809F0BB0B19
:101A2000802DBF01FF2793585F4F3AF09E3F51052D
:101A300078F00C94AC0D0C94F70D5F3FE4F3983EF6
:101A4000D4F3869577956795B795F7959F5FC9F716
:101A5000880F911D9695879597F90895E1E0660F97
:101A6000771F881FBB1F621773078407BA0720F010
:101A7000621B730B840BBA0BEE1F88F7E095089579
:101A80000E94DC0D88F09F5798F0B92F9927B75125
:101A9000B0F0E1F0660F771F881F991F1AF0BA9512
:101AA000C9F714C0B13091F00E94F60DB1E008956D
:101AB0000C94F60D672F782F8827B85F39F0B93F5F
:101AC000CCF3869577956795B395D9F73EF49095C5
:101AD0008095709561957F4F8F4F9F4F0895E89443
:101AE00009C097FB3EF490958095709561957F4F66
:101AF0008F4F9F4F9923A9F0F92F96E9BB27939514
:101B0000F695879577956795B795F111F8CFFAF423
:101B1000BB0F11F460FF1BC06F5F7F4F8F4F9F4F54
:101B200016C0882311F096E911C0772321F09EE8B2
:101B3000872F762F05C0662371F096E8862F70E018
:101B400060E02AF09A95660F771F881FDAF7880FF2
:101B50009695879597F9089597F99F6780E870E0C3
:101B600060E008959FEF80EC089500240A94161613
:101B7000170618060906089500240A94121613067B
:101B8000140605060895092E0394000C11F4882309
:101B900052F0BB0F40F4BF2B11F460FF04C06F5F25
:101BA0007F4F8F4F9F4F089557FD9058440F551FFB
:101BB00059F05F3F71F04795880F97FB991F61F0CF
:101BC0009F3F79F087950895121613061406551F46
:101BD000F2CF4695F1DF08C0161617061806991FB2
:101BE000F1CF86957105610508940895E894BB27A7
:101BF00066277727CB0197F90895BB274A3031F440
:101C0000992322F4BDE2909581959F4F0C94090E83
:101C1000BB27FB015527AA27880F991FAA1FA417C6
:101C200010F0A41B83955051B9F7A05DAA3308F0BA
:101C3000A95DA193009779F7B111B1931192CB01EE
:101C40000C94220EDC01FC01672F71917723E1F7E0
:101C5000329704C07C916D9370836291AE17BF0779
:081C6000C8F30895F894FFCFCA
:101C680046454544004D4521210048554700574108
:101C78004C4B00574153480049274D20535441527B
:101C880056494E4721212049274D20474F4E4E4166
:101C9800204641494E54203B280069276D20736F28
:101CA8006F6F206C6F6E656C7920616E6420736154
:101CB800642E2E2E206C6F7665206D6521210069BB
:101CC800276D2067657474696E672066617420618A
:101CD8006E6420626F72656420696E20746869732F
:101CE80020617175617269756D006D792066696E24
:101CF80073206973207374616E6B7900692066655F
:101D0800656C2066756C6C6572207468616E206104
:101D180020707566666572666973680069206C6F05
:101D2800766520637564646C6573206D6F726520D9
:101D38007468616E20627562626C65732100776FEA
:101D48006F6621007368696E6520627269676874DE
:101D5800206C696B652061206469616D6F6E642118
:021D6800000079
:00000001FF
