:100000000C943A010C9459010C9459010C94590127
:100010000C9459010C9459010C9459010C945901F8
:100020000C9459010C9459010C9459010C945901E8
:100030000C9459010C9459010C9459010C945901D8
:100040000C9459010C9459010C9459010C945901C8
:100050000C9459010C9459010C9459010C945901B8
:100060000C9459010C9459010C9459010C945901A8
:100070000C9459010C9459010C9459010C94590198
:100080000C9459010C9459010C9459010C94590188
:100090000C9459010C945901000000000000005F0D
:1000A00000000003000300143E143E14242A7F2A9B
:1000B000124333086661364955225000050300009B
:1000C000001C2241000041221C0014083E081408B4
:1000D000083E0808005030000008080808080060C2
:1000E00060000020100804023E5149453E00040211
:1000F0007F00426151494622414949361814127F16
:100100001027454545393E494949320101710907E2
:100110003649494936264949493E003636000000ED
:10012000563600000814224100141414141400411F
:1001300022140802015109063E4159555E7E090903
:10014000097E7F494949363E414141227F41414133
:100150003E7F494949417F090909013E4141493AE8
:100160007F0808087F00417F4100304040403F7FCA
:10017000081422417F404040407F020C027F7F02F2
:1001800004087F3E4141413E7F090909061E2121A5
:10019000215E7F09090976264949493201017F011B
:1001A000013F4040403F1F2040201F7F2010207F04
:1001B00041221C224107087008076151494543004C
:1001C0007F41000002040810200000417F0004026B
:1001D0000102044040404040000102040020545409
:1001E00054787F4444443838444444443844444474
:1001F0007F385454541804047E0505085454543C64
:100200007F0804047800447D40002040443D007F86
:100210001028440000417F40007C047804787C086A
:1002200004047838444444387C1414140808141422
:10023000147C007C080404485454542004043F44B3
:10024000443C4040207C1C2040201C3C4030403C32
:1002500044281028440C5050503C4464544C4400F2
:100260000836414100007F0000414136080002018C
:100270000204020011241FBECFEFD0E2DEBFCDBFCB
:1002800012E0A0E0B1E0EAECF8E400E00BBF02C04D
:1002900007900D92A43CB107D9F722E0A4ECB2E09C
:1002A00001C01D92A53EB207E1F70E9408220C94FE
:1002B00063240C94000093E89093B00091E0909335
:1002C000B1008093B30008959093D0028093CF0241
:1002D00026E330E020930040009779F480EF90E02F
:1002E0009093CC028093CB0280E491E09093CE0275
:1002F0008093CD0288E490E034C08130910579F498
:1003000080E491E09093CC028093CB0280EF90E068
:100310009093CE028093CD0288EE90E022C082308E
:10032000910579F480EF90E09093CC028093CB021A
:1003300080E491E09093CE028093CD0288E890E033
:1003400010C0039781F480E491E09093CC028093F5
:10035000CB0280EF90E09093CE028093CD0288E2B2
:1003600090E0809300418AE290E08093004020E09A
:1003700030E030930041209300418091CB02909176
:10038000CC02019790930041809300418BE290E072
:100390008093004030930041209300418091CD0232
:1003A0009091CE020197909300418093004108956F
:1003B000CF93873748F4883048F08D3350F48F312D
:1003C00050F4803150F403C086E703C088E0C3E0F6
:1003D00005C0C0E003C0C1E001C0C2E021EB30E0D5
:1003E00020930040C0930041682F70E080E090E0CF
:1003F0000E94E5229B01AC0160E070E080EF94E494
:100400000E9442220E94B42270E002C07595679556
:10041000CA95E2F760930041CF9108950F931F931F
:10042000CF93DF93CDB7DEB728970FB6F894DEBF32
:100430000FBECDBF29833A834B835C836D837E835C
:100440008F83988769817A812B813C814D815E8180
:100450008F819885EAE2F0E0E093004070930041DC
:10046000609300413093004120930041EBE2F0E0C3
:10047000E09300405093004140930041909300412D
:1004800080930041ECE2F0E0E09300402F5F3F4FAB
:10049000261B370B0196841B950B2817390790F400
:1004A000482F4770429FB001439F700D112453E0C5
:1004B000969587955A95E1F7829FA001839F500DED
:1004C000112411C0422F4770489FB001499F700D01
:1004D000112443E0369527954A95E1F7289FA0011E
:1004E000299F500D1124862F8770815028F010937A
:1004F000004100930041F9CFCB0123E09695879509
:100500002A95E1F7840F951F019708F11093004198
:10051000009300411093004100930041109300416B
:10052000009300411093004100930041109300415B
:10053000009300411093004100930041109300414B
:10054000009300411093004100930041DDCF2896B5
:100550000FB6F894DEBF0FBECDBFDF91CF911F91D4
:100560000F910895EF92FF920F931F93CF93DF9314
:10057000CDB7DEB728970FB6F894DEBF0FBECDBF5C
:1005800029833A834B835C836D837E838F83988733
:1005900089819A81EB80FC806D817E81AF81B885F5
:1005A0002AE230E020930040909300418093004184
:1005B000F0920041E09200412BE230E020930040B5
:1005C0007093004160930041B0930041A0930041BB
:1005D0002CE230E020930040E816F906A0F0A801D4
:1005E0009B018A01A217B30760F04E5F5F4FF801CD
:1005F0000081118110930041009300412F5F3F4F14
:10060000F0CF0196E9CF28960FB6F894DEBF0FBE63
:10061000CDBFDF91CF911F910F91FF90EF90089583
:100620000F931F93CF93DF93CDB7DEB728970FB605
:10063000F894DEBF0FBECDBFEBECF2E0178216825E
:10064000118610861A821982808191810197482F24
:100650009C838B831E821D82828193810197988760
:100660008F830485158520E03A815C8160E07E817E
:1006700098850E940E0228960FB6F894DEBF0FBE32
:10068000CDBFDF91CF911F910F91089586E08093A8
:10069000750080E8809374003F9A249A8FEC97E06D
:1006A0000197F1F700C0000047988FE39CE901979C
:1006B000F1F700C00000479A9FEF2DEE82E09150C5
:1006C00020408040E1F700C0000088E290E0809385
:1006D000004081E190E0809300409FEF26E781E0B9
:1006E000915020408040E1F700C0000021E030E060
:1006F0008BEC90E0809300402093004180EC90E0F0
:100700008093004088E096E29093004180930041FE
:1007100020E130E081EC90E08093004020930041A4
:1007200085EC90E0809300408EE395E39093004148
:100730008093004125EB30E087EC90E0809300400F
:100740002093004121E030E086EF90E0809300406C
:100750002093004180E090E090930041809300411D
:1007600025E530E08AE390E080930040209300414B
:1007700081E090E00E9464010E941003EBECF2E043
:100780001782168211861086158614868FEF9FEFCA
:100790009387828789E290E0809300409FE728E377
:1007A00081E0915020408040E1F700C0000020E04F
:1007B00030E085E390E08093004020930041EAE63A
:1007C000F0E08081806280832C9A08959F92AF929E
:1007D000BF92CF92DF92EF92FF920F931F93CF932E
:1007E000DF932091D3023091D4028A30F9F4109231
:1007F000D2021092D102285F3F4F3093D40220934F
:10080000D3028091CD029091CE022817390708F4C7
:10081000A8C0DF91CF911F910F91FF90EF90DF90D3
:10082000CF90BF90AF909F900C94100390EE980FD4
:100830009F3508F096C06091D1027091D202A90153
:10084000495F5F4F082E000C990B8097E5E0E89F09
:10085000E001E99FD00D11248BE290E080930040ED
:100860003093004120930041509300414093004158
:10087000CB01DB0114960AE210E0ECE2EE2EF12C43
:10088000A817B90780F1009300409093004180932E
:1008900000419093004180930041E0920040FC01B0
:1008A000E61BF70BEC0FFD1FE856FF4F9490690114
:1008B000F1E04C155D05A8F0BF2EB92029F0A090FD
:1008C000D502B090D60204C0A090D702B090D80252
:1008D000B0920041A0920041EFEFCE1ADE0AFF0F66
:1008E000E8CF0196CDCF6AE270E06093004090932C
:1008F00000418093004190930041809300418CE23D
:1009000090E0809300404217530758F08091D7023F
:100910009091D80290930041809300412F5F3F4F08
:10092000F2CF8091D1029091D2029C012A5F3F4F79
:100930003093D2022093D1020B962091CB023091BA
:10094000CC028217930768F01092D2021092D10263
:100950008091D3029091D40208969093D402809310
:10096000D302DF91CF911F910F91FF90EF90DF9015
:10097000CF90BF90AF909F9008950F931F93CF9308
:100980008C01C0E0F801EC0FF11D8081882321F07B
:100990000E94E603CF5FF6CFCF911F910F9108958C
:1009A000EBECF2E097838683718760870895EBEC28
:1009B000F2E0938782877587648708950F931F936A
:1009C000CF938C017093D2026093D1025093D402E2
:1009D0004093D302C0E0F801EC0FF11D8081882321
:1009E00021F00E94E603CF5FF6CFCF911F910F91C8
:1009F00008958DB18F7C8DB98EB180638EB987B12A
:100A0000837C87B988B18C6388B96F98779A87B1EE
:100A1000837C87B988B18C6388B90895AC01F89458
:100A20009CB195FF02C023E001C020E094FF02C00A
:100A300081E028279091C702921B90FF09C0209364
:100A4000C7022091DD0292702150920F9093DD0237
:100A50007894CA010895F8948091DD029091DD02A6
:100A600091709093DD02789485950895AC01F89487
:100A700096B18CB123B13091DC02906C8F679823D2
:100A80002F6B9223909539272091C6022323922F12
:100A900090959093C6022091C50223232927209385
:100AA000C502932392238091DC0289278093DC0284
:100AB0002091DC028091D9029223982B9093D90245
:100AC0008091DC028C7F19F48CE38093C4028091C6
:100AD000C402815019F08093C4020BC08AE0809355
:100AE000C4028091DC029091DB028C7F892B809381
:100AF000DB027894CA010895F8949091D902892371
:100B00009091D90298279093D90278940895F894F7
:100B10009091DB0289239091DB0298279093DB026E
:100B2000789408959091DC0289230895F894909127
:100B3000DC02909589230C947C050E9487050C9417
:100B40007C050F931F93CF93DF93CDB7DEB72E971E
:100B50000FB6F894DEBF0FBECDBF8AEA90E09E8349
:100B60008D8389EB90E098878F8381E990E09A8369
:100B700089838FEA90E09C838B838091DF02909140
:100B8000E002892B79F48FEF9FEF9093D602809348
:100B9000D50280E094E09093D8028093D70200E0E1
:100BA00014E00EC08FEF9FEF9093D6028093D50292
:100BB00080E098EF9093D8028093D70200E018EF7E
:100BC00029813A814B815C816D817E818F819885FD
:100BD0000E940E024AE0BE01675F7F4F8091C9020A
:100BE0009091CA020E94CB234FEA50E066E970E080
:100BF000CE0109960E94DE042E960FB6F894DEBF51
:100C00000FBECDBFDF91CF911F910F9108950F932C
:100C10001F93CF93DF93CDB7DEB728970FB6F89425
:100C2000DEBF0FBECDBF80EE9FEF9093D6028093C4
:100C3000D50280E098EF9093D8028093D70286EE99
:100C400090E098878F838091DF029091E00281305D
:100C5000910511F58FE5482F8B831C828DE2282F9B
:100C600089831A828EEB682F8D831E8200E018EF35
:100C700030E050E070E08F8198850E940E0248ECD1
:100C800050E06CE370E084E091E00E94DE0445ED0A
:100C900050E06CE370E06EC08230910511F58BE995
:100CA000482F8B831C8289E6282F89831A828EEB3A
:100CB000682F8D831E8200E018EF30E050E070E076
:100CC0008F8198850E940E0248EC50E068E770E042
:100CD0008EE091E00E94DE0445ED50E068E770E0B0
:100CE00049C08330910511F587ED482F8B831C8215
:100CF00085EA282F89831A828EEB682F8D831E82C6
:100D000000E018EF30E050E070E08F8198850E949D
:100D10000E0248EC50E064EB70E082E191E00E944A
:100D2000DE0445ED50E064EB70E024C0049781F5EB
:100D300083E1482F8B8381E08C8381EE282F898388
:100D40001A828EEB682F8D831E8200E018EF30E050
:100D500051E070E08F8198850E940E0248EC50E0CF
:100D600060EF70E087E191E00E94DE0445ED50E025
:100D700060EF70E089E091E028960FB6F894DEBF4E
:100D80000FBECDBFDF91CF911F910F910C94DE0468
:100D900028960FB6F894DEBF0FBECDBFDF91CF917E
:100DA0001F910F9108958F929F92AF92BF92CF9211
:100DB000DF92EF92FF920F931F93CF93DF93CDB704
:100DC000DEB728970FB6F894DEBF0FBECDBF5C012B
:100DD0008091DE02813071F0823099F08330C1F071
:100DE0008430E1F476E1E72EFF24F394EEEDCE2E8D
:100DF000D12C14C052E6E52EF12C6AE2C62ED12C7D
:100E00000DC03EE9E32EF12C46E6C42ED12C06C0DF
:100E10009AEDE92EF12C22EAC22ED12C8BEB982EE2
:100E2000812C692D9D828E828CEB2C2DDA82C982D9
:100E30004E2DFC82EB8285013A815C8170E090E06E
:100E40000E940E0289EE8F8318869FEFC91AD90A75
:100E50004C2DDC82CB8229813A815C816D817E813F
:100E600090E00E940E0288EE682F4E2DFC82EB82ED
:100E700029813A815C8170E08F8198850E940E0201
:100E8000692D81E0E81AF1082E2DFA82E9823A8173
:100E90004B815C8170E08F8198850E940E022896BC
:100EA0000FB6F894DEBF0FBECDBFDF91CF911F917B
:100EB0000F91FF90EF90DF90CF90BF90AF909F90F9
:100EC0008F9008950F931F93CF93DF93CDB7DEB725
:100ED00028970FB6F894DEBF0FBECDBFEBECF2E063
:100EE00080EE9FEF9387828782EB98EF95878487C8
:100EF00086EE8F8318869FE5492F9DE2292F9EEB72
:100F0000692F9D831E8202EB18EF30E050E070E005
:100F100090E00E940E0248EC50E06CE370E084E048
:100F200091E00E94DE0445ED50E06CE370E089E062
:100F300091E00E94DE048BE9482F89E6282F30E0FB
:100F400050E06D817E818F8198850E940E0248EC71
:100F500050E068E770E08EE091E00E94DE0445ED2D
:100F600050E068E770E089E091E00E94DE0487EDE0
:100F7000482F85EA282F30E050E06D817E818F81F7
:100F800098850E940E0248EC50E064EB70E082E12C
:100F900091E00E94DE0445ED50E064EB70E089E0F2
:100FA00091E00E94DE0483E1482F8B8381E08C83F3
:100FB00081EE282F89831A8230E051E06D817E8195
:100FC0008F8198850E940E0248EC50E060EF70E03F
:100FD00087E191E00E94DE0445ED50E060EF70E0B3
:100FE00089E091E00E94DE040E94070680EE9FEFF8
:100FF00028960FB6F894DEBF0FBECDBFDF91CF911C
:101000001F910F910C94D30680E090E00C94D306CE
:10101000EF92FF920F931F93CF93DF93CDB7DEB77D
:1010200028970FB6F894DEBF0FBECDBF7C01EBEC66
:10103000F2E0138612868FEF9FEF958784878FE00B
:10104000682F8D831E8288E28F8318869CED292F5E
:1010500099831A8290E4492F9B8391E09C830FEF40
:101060001FEF30E051E070E090E00E940E0247E197
:1010700050E06FED70E0C70128960FB6F894DEBF20
:101080000FBECDBFDF91CF911F910F91FF90EF90D9
:101090000C94DE04813049F481E090E09093E0020A
:1010A0008093DF028CE191E020C0823049F482E03D
:1010B00090E09093E0028093DF028BE291E015C014
:1010C000833049F483E090E09093E0028093DF0264
:1010D0008CE391E00AC0843051F484E090E0909376
:1010E000E0028093DF028BE491E00E9408080E94F6
:1010F000BC236AE070E00E941A2205962091C90282
:101100003091CA02820F931F9093CA028093C90242
:101110000C9462072091DF023091E002482F50E0EA
:101120004217530751F51092E0021092DF0281300E
:1011300019F48AE591E00EC0823019F487E691E057
:1011400009C0833019F486E791E004C08430F1F4DB
:101150008CE791E00E9408080E94BC2366E070E0E2
:101160000E941A222091C9023091CA02820F931F55
:101170009093CA028093C90209C0232B19F48AE80C
:1011800091E002C08BE991E00E9408080C9462078C
:101190002F923F924F925F926F927F928F929F9287
:1011A000AF92BF92CF92DF92EF92FF920F931F9375
:1011B000CF93DF93CDB7DEB728970FB6F894DEBF95
:1011C0000FBECDBFF82E8FE0682F72E3E72E2E2DD5
:1011D00085EAEAEDDE2E4D2D00E010E030E050E033
:1011E00070E090E00E940E0292E0F912FFC386E1E7
:1011F000682F8BE13DE5232E222D48E600EE1FEF00
:1012000030E050E070E090E00E940E028CE1682F28
:1012100081E249E6842E282D54E7952E492D30E0B1
:1012200050E070E090E00E940E0282E2682F8D8311
:101230001E8287E28F8318867FE6372E232D4AE7AA
:1012400030E050E070E090E00E940E0229E98EE963
:10125000482F30E050E06D817E818F8198850E941B
:101260000E0288E2682F8D831E828DE28F8318869E
:10127000E5E74E2E242D40E830E050E070E090E0AD
:101280000E940E0229E94AEA30E050E06D817E8139
:101290008F8198850E940E028EE2682F8D831E82B8
:1012A00083E38F8318862BE786E8482F30E050E0F1
:1012B00070E083E390E00E940E0227E840EB01E13A
:1012C00010E030E050E06D817E818F8198850E9432
:1012D0000E0284E3682F8D831E8299E39F83188614
:1012E00023E34EE330E050E070E089E390E00E94B9
:1012F0000E022BE740E800EE1FEF30E050E06D817A
:101300007E818F8198850E940E0221E8FCEB5F2E82
:10131000452D01E110E030E050E06D817E818F814C
:1013200098850E940E028AE3682F8D831E828FE3C8
:101330008F83188629E344E430E050E070E090E0C9
:101340000E940E02242D42EC30E050E06D817E813F
:101350008F8198850E940E0280E4682F8D831E8203
:10136000A5E4EA2EEF82188629E34AE430E050E053
:1013700070E08E2D90E00E940E02232D40E830E0B8
:1013800050E06D817E818F8198850E940E0221E858
:1013900046EB00EE1FEF30E050E06D817E818F81E3
:1013A00098850E940E02B7EB6B2E262D1EECB12EF7
:1013B0004B2D01E110E030E050E06D817E818F81A6
:1013C00098850E940E0286E4682F8D831E829BE41E
:1013D0009F8318862FE340E530E050E070E08BE417
:1013E00090E00E940E02282D492D30E050E06D81E2
:1013F0007E818F8198850E940E02242D08ECF02EAC
:101400004F2D00EE1FEF30E050E06D817E818F8127
:1014100098850E940E0289ECA82E2A2D44ED30E01A
:1014200050E06D817E818F8198850E940E028CE450
:10143000682F8D831E8281E58F8318862E2D46E5C9
:1014400001E110E030E050E070E090E00E940E0218
:1014500023E64EE630E050E06D817E818F819885F5
:101460000E940E02232D452D00EE1FEF30E050E0CC
:101470006D817E818F8198850E940E029DEB792E71
:10148000272D4F2D00E014E830E050E06D817E8183
:101490008F8198850E940E022A2D4B2D00EE1FEFA2
:1014A00030E050E06D817E818F8198850E940E0230
:1014B0002FECC22E2C2D44ED30E050E06D817E816A
:1014C0008F8198850E940E0282E5682F8D831E828F
:1014D00087E58F8318862E2D46E501E110E030E088
:1014E00050E070E090E00E940E02222D42E630E0D3
:1014F00050E06D817E818F8198850E940E0223E6E7
:10150000492D00EE1FEF30E050E06D817E818F812C
:1015100098850E940E02242D46EB0CEB1EEA30E06B
:1015200050E06D817E818F8198850E940E02262D6C
:10153000452D00E014E830E050E06D817E818F8120
:1015400098850E940E02272D4F2D00E010E030E01C
:1015500050E06D817E818F8198850E940E022A2D38
:101560004B2D00E014E830E050E06D817E818F81EA
:1015700098850E940E022C2D44ED00EE1FEF30E006
:1015800050E06D817E818F8198850E940E0285EDED
:10159000282F4D2D01E110E030E050E06D817E817B
:1015A0008F8198850E940E0288E5682F8D831E82A8
:1015B0002F8218862BE44CE530E050E070E0822D5D
:1015C00090E00E940E02222D48E600EE1FEF30E070
:1015D00050E06D817E818F8198850E940E02282DBA
:1015E00046EB0CEB1EEA30E050E06D817E818F818E
:1015F00098850E940E02262D452D00E014E830E06B
:1016000050E06D817E818F8198850E940E02272D8A
:101610004F2D00E010E030E050E06D817E818F8141
:1016200098850E940E022A2D4B2D00E014E830E030
:1016300050E06D817E818F8198850E940E022C2D55
:101640004D2D0CEB1EEA30E050E06D817E818F81E4
:1016500098850E940E028EE5682F8D831E8293E688
:101660009F8318862BE44CE501E110E030E050E068
:1016700070E083E690E00E940E02222D4D2D0CEBCF
:101680001EEA30E050E06D817E818F8198850E9456
:101690000E02272D4F2D00E014E830E050E06D8160
:1016A0007E818F8198850E940E022C2D4D2D00E0A9
:1016B00018EF30E050E06D817E818F8198850E9427
:1016C0000E0284E6682F8D831E828F8218862E2D4F
:1016D00046E501E110E030E050E070E0882D90E058
:1016E0000E940E02222D42E90CEB1EEA30E050E08F
:1016F0006D817E818F8198850E940E0233E9632E71
:10170000262D4AEA00E114E830E050E06D817E8148
:101710008F8198850E940E024BEA742E272D4F2D43
:101720000CEB1EEA30E050E06D817E818F81988560
:101730000E940E022A2D4B2D00E018EF30E050E001
:101740006D817E818F8198850E940E022C2D4D2DFA
:101750000CEB1EEA30E050E06D817E818F81988530
:101760000E940E028AE6682F8D831E823F821886B1
:101770002E2D46E501E110E030E050E070E0832DD1
:1017800090E00E940E0223E64AE70CEB1EEA30E0EE
:1017900050E06D817E818F8198850E940E022BE73B
:1017A00084EA482F00E114E830E050E06D817E814A
:1017B0008F8198850E940E0225EA4D2D0CEB1EEAC2
:1017C00030E050E06D817E818F8198850E940E020D
:1017D00083EC282F4F2D00E018EF30E050E06D81B2
:1017E0007E818F8198850E940E0280E7682F8D830D
:1017F0001E824F8218862FE340E501E110E030E0C1
:1018000050E070E0842D90E00E940E02282D44EDFF
:101810000CEB1EEA30E050E06D817E818F8198856F
:101820000E940E0286E7682F8D831E828BE78F83CE
:10183000188629E34AE401E110E030E050E070E06E
:1018400090E00E940E02232D4F2D0CEB1EEA30E09B
:1018500050E06D817E818F8198850E940E028CE719
:10186000682F8D831E8291E89F83188629E344E4C4
:1018700001E110E030E050E070E081E890E00E948B
:101880000E02232D492D00EE1FEF30E050E06D8158
:101890007E818F8198850E940E02242D42EC0CEBF4
:1018A0001EEA30E050E06D817E818F8198850E9434
:1018B0000E0282E8682F8D831E8287E88F83188648
:1018C00023E34EE301E110E030E050E070E090E00F
:1018D0000E940E02232D40E800EE1FEF30E050E0A2
:1018E0006D817E818F8198850E940E0221E8452DB1
:1018F0000CEB1EEA30E050E06D817E818F8198858F
:101900000E940E0288E8682F8D831E825DE8F52E06
:10191000E12CFF82E886282D4AE700EE1FEF30E039
:1019200050E070E08F2D90E00E940E022F2DF98282
:10193000EA8240EB0CEB1EEA30E050E06D817E81E4
:101940008F8198850E940E0242E900EE1FEF2981E7
:101950003A8150E06D817E818F8198850E940E02D0
:101960008EE8682F8D831E826F821886282D492D60
:1019700030E050E070E0862D90E00E940E02272DAE
:1019800046EB30E050E06D817E818F8198850E942A
:101990000E0284E9682F8D831E8299E99F83188641
:1019A000222D4EE630E050E070E089E990E00E94A0
:1019B0000E02272D40EB30E050E06D817E818F815B
:1019C00098850E940E028AE9682F8D831E828FE916
:1019D0008F83188627E542E630E050E070E090E023
:1019E0000E940E0285EA282F4AEAE7C7F110F2C3E7
:1019F00080E1682F85E127E87CE8972E492D9B82BE
:101A00001C8200EE1FEF30E050E070E090E00E949A
:101A10000E0286E1682F8BE1E1E8BE2E2B2DB98204
:101A20001A8230E04B815C8170E090E00E940E02EF
:101A30008CE1682F81E229813A814B815C8170E0E1
:101A400090E00E940E0282E2682F87E229813A81AB
:101A50004B815C8170E090E00E940E0288E2682F6A
:101A60008D831E828DE28F83188625E7F0E8FF2E96
:101A70004F2D01E110E030E050E070E090E00E9476
:101A80000E022B2D492D00EE1FEF30E050E06D814E
:101A90007E818F8198850E940E022DE848E901E140
:101AA00010E030E050E06D817E818F8198850E944A
:101AB0000E028EE2682F8D831E8283E38F83188649
:101AC0002FE64F2D30E050E070E090E00E940E02D3
:101AD0002B2D492D00EE1FEF30E050E06D817E810F
:101AE0008F8198850E940E022DE84EE901E110E0F9
:101AF00030E050E06D817E818F8198850E940E02DA
:101B000084E3682F89E3A9E62A2E222DB4EA4B2E1E
:101B1000442D30E050E070E090E00E940E028AE335
:101B2000682F8D831E828FE38F83188615E4D12E54
:101B3000812C2D2D9AE4492F00E114E830E050E08B
:101B400070E090E00E940E0223E64AEA01E110E014
:101B500030E050E06D817E818F8198850E940E0279
:101B600083EC282F08ECA02E4A2D00E114E830E089
:101B700050E06D817E818F8198850E940E0280E405
:101B8000682F8D831E82DF8288862D2D80E5482F69
:101B900030E050E070E08D2D90E00E940E028DE567
:101BA000E82E2E2D90EBF92E4F2D00EE1FEF30E09A
:101BB00050E06D817E818F8198850E940E02222DDA
:101BC000442D01E110E030E050E06D817E818F8195
:101BD00098850E940E028DEB282F4A2D00E114E813
:101BE00030E050E06D817E818F8198850E940E02E9
:101BF00086E4682F8D831E822BE4C22E312CCF8287
:101C000038862D2D36E5D32E4D2D30E050E070E096
:101C10008C2D90E00E940E022E2D4F2D00EE1FEF16
:101C200030E050E06D817E818F8198850E940E02A8
:101C30002FE64EE901E110E030E050E06D817E8159
:101C40008F8198850E940E0247EB742E272D4A2D16
:101C500000E114E830E050E06D817E818F8198854D
:101C60000E940E028CE4682F8D831E8281E58F8393
:101C700018862C2D4D2D30E050E070E090E00E9451
:101C80000E022E2DE9821A824F2D00EE1FEF30E05A
:101C900050E06D817E818F8198850E940E0248E61A
:101CA00000E014E829813A8150E06D817E818F81C6
:101CB00098850E940E022BE782E9482F01E110E08F
:101CC00030E050E06D817E818F8198850E940E0208
:101CD00025EA4F2D00E014E830E050E06D817E8170
:101CE0008F8198850E940E02272D52EC652E462D7D
:101CF00000E114E830E050E06D817E818F819885AD
:101D00000E940E0282E5682F8D831E8277E5A72E42
:101D1000AF8218862C2D4D2D30E050E070E08A2DDA
:101D200090E00E940E022E2D4F2D00EE1FEF30E0AE
:101D300050E06D817E818F8198850E940E022A2D50
:101D4000EEE6CE2E4C2D00E014E830E050E06D8140
:101D50007E818F8198850E940E022B2D492D01E1F5
:101D600010E030E050E06D817E818F8198850E9487
:101D70000E02FFE9DF2E2D2DA6EB8A2E482D00E066
:101D800014E830E050E06D817E818F8198850E945B
:101D90000E02272D462D00E114E830E050E06D8161
:101DA0007E818F8198850E940E0288E5682F8D8341
:101DB0001E82EF82188621E5BCEB7B2E472D0CEBB3
:101DC0001EEA30E050E070E08E2D90E00E940E029E
:101DD0002A2DA9821A824C2D00E014E830E050E050
:101DE0006D817E818F8198850E940E0212E6512EB0
:101DF000452D00E010E029813A8150E06D817E811F
:101E00008F8198850E940E022B2D492D00EE1FEF29
:101E100030E050E06D817E818F8198850E940E02B6
:101E20002D2D482D8B821C8200E014E830E050E01C
:101E30006D817E818F8198850E940E020BEA602E53
:101E4000262D00E010E030E04B815C816D817E81C9
:101E50008F8198850E940E028EE5682F8D831E82E9
:101E600093E69F83188621E5472D0CEB1EEA30E0B0
:101E700050E070E083E690E00E940E022A2DA982D5
:101E80001A824C2D00E014E830E050E06D817E8134
:101E90008F8198850E940E02452D00E010E0298177
:101EA0003A8150E06D817E818F8198850E940E027B
:101EB0002B2D492D00EE1FEF30E050E06D817E812B
:101EC0008F8198850E940E022D2D482D8B821C82B9
:101ED00000E014E830E050E06D817E818F819885CC
:101EE0000E940E02262D00E010E030E04B815C8164
:101EF0006D817E818F8198850E940E0284E6682F15
:101F00008D831E822F82188621E5472D0CEB1EEA59
:101F100030E050E070E0822D90E00E940E022A2D09
:101F20004C2D00E014E830E050E06D817E818F811F
:101F300098850E940E0225E748E900E018EF30E09E
:101F400050E06D817E818F8198850E940E022D2D3B
:101F5000482D8B821C8200E014E830E050E06D8157
:101F60007E818F8198850E940E028AE6682F8D837C
:101F70001E828FE68F8318862A2D0CEB1EEA30E036
:101F80004B815C8170E090E00E940E022E2D48E6AD
:101F900000E014E830E050E06D817E818F8198850B
:101FA0000E940E022FE684E7782E472D00E018EFFE
:101FB00030E050E06D817E818F8198850E940E0215
:101FC00099E9992E612C292D4EE930E050E06D8180
:101FD0007E818F8198850E940E0225EA4F2D00E0B8
:101FE00014E830E050E06D817E818F8198850E94F9
:101FF0000E0280E7682F8D831E8295E79F831886E7
:102000002A2D482D0CEB1EEA30E050E070E085E709
:1020100090E00E940E022FE6472D00E018EF30E01E
:1020200050E06D817E818F8198850E940E02292D5E
:102030004EE930E050E06D817E818F8198850E946D
:102040000E0286E7682F8D831E828BE78F831886AA
:102050002E2D4F2D0CEB1EEA30E050E070E090E0AA
:102060000E940E02222D4C2D00E018EF30E050E0CF
:102070006D817E818F8198850E940E022D2D442DC9
:1020800030E050E06D817E818F8198850E940E0244
:102090008CE7682F2E2D4F2D0CEB1EEA30E050E020
:1020A00070E08B2D90E00E940E0282E8682F23E6FC
:1020B0004AEA30E050E070E087E890E00E940E02CB
:1020C00088E8682F8DE8222D29821A82442D30E07D
:1020D00050E070E090E00E940E028EE8682F8D8341
:1020E0001E8283E98F8318864C2D00EE1FEF298115
:1020F0003A8150E070E090E00E940E022FE64EE937
:102100000CEB1EEA30E050E06D817E818F81988576
:102110000E940E022D2D442D00EE1FEF30E050E006
:102120006D817E818F8198850E940E0284E9682FDF
:102130008D831E829F826886222D472D30E050E0DD
:1021400070E0892D90E00E940E0225E748E90CEB33
:102150001EEA30E050E06D817E818F8198850E947B
:102160000E02292D442D00EE1FEF30E050E06D816E
:102170007E818F8198850E940E028AE9682F8D8367
:102180001E82DF82388623E64C2D30E050E070E07E
:102190008D2D90E00E940E022D2D4AEA30E050E095
:1021A0006D817E818F8198850E940E0280EA682F62
:1021B0008D831E8225EAD22EDF8218862E2D48E6D8
:1021C00030E050E070E085EA90E00E940E022D2D94
:1021D0004F2DF3C391E0F912F8C386E1682F8BE12C
:1021E0009FEA392E432D24EA00EE1FEF30E050E045
:1021F00070E090E00E940E028CE1682F81E223EAF9
:10220000422E442D38E9232E222D30E050E070E09C
:1022100090E00E940E0282E2682F8D831E8287E288
:102220008F8318864DE9A42E4A2D22E930E050E034
:1022300070E090E00E940E0253E7F52E4F2D8EE6DF
:10224000282F30E050E06D817E818F8198850E943B
:102250000E0286E2682F8D831E828DE28F831886A0
:1022600077E9672E462D2CE830E050E070E090E0F2
:102270000E940E024F2D22E630E050E06D817E81FB
:102280008F8198850E940E028CE2682F8D831E82BA
:1022900083E38F83188641E996E8292F30E050E0E8
:1022A00070E090E00E940E0285E8482F2CE501E1E5
:1022B00010E030E050E06D817E818F8198850E9432
:1022C0000E0284E3682F8D831E8289E38F83188634
:1022D00049ED2EEC30E050E070E090E00E940E02FC
:1022E00041E92CE800EE1FEF30E050E06D817E8187
:1022F0008F8198850E940E024BE8E0E5BE2E2B2DC3
:1023000001E110E030E050E06D817E818F819885A1
:102310000E940E028AE3682F8D831E828FE38F83D3
:10232000188643ED28EC30E050E070E090E00E9429
:102330000E02462D2AE430E050E06D817E818F81CF
:1023400098850E940E0280E4682F8D831E8285E4AA
:102350008F83188643ED22EC30E050E070E090E08F
:102360000E940E024A2D2CE830E050E06D817E8103
:102370008F8198850E940E024BE8F6E55F2E252D91
:1023800000EE1FEF30E050E06D817E818F819885F7
:102390000E940E02A5E57A2E472DBEE3DB2E2D2DE1
:1023A00001E110E030E050E06D817E818F81988501
:1023B0000E940E0286E4682F8D831E828BE48F8339
:1023C00018864DEC2CEB30E050E070E090E00E947D
:1023D0000E02442D222D30E050E06D817E818F81F0
:1023E00098850E940E02462D14E4F12E2F2D00EE4A
:1023F0001FEF30E050E06D817E818F8198850E94D3
:102400000E0283E4C82E4C2D28E330E050E06D81AD
:102410007E818F8198850E940E028CE4682F8D83C7
:102420001E8281E58F83188647EC26EB01E110E0E0
:1024300030E050E070E090E00E940E0249EA2EE9A0
:1024400030E050E06D817E818F8198850E940E0280
:102450004A2D2B2D00EE1FEF30E050E06D817E8184
:102460008F8198850E940E029FE4892E482D2F2D82
:1024700000E014E830E050E06D817E818F81988526
:102480000E940E024C2D2D2D00EE1FEF30E050E08B
:102490006D817E818F8198850E940E022DE3922EA0
:1024A000492D28E330E050E06D817E818F81988551
:1024B0000E940E0282E5682F8D831E8287E58F833E
:1024C000188647EC26EB01E110E030E050E070E0C8
:1024D00090E00E940E02432D2AEA30E050E06D8128
:1024E0007E818F8198850E940E0249EA222D00EE9E
:1024F0001FEF30E050E06D817E818F8198850E94D2
:102500000E02462D252D0CEB1EEA30E050E06D81C9
:102510007E818F8198850E940E02472D2B2D00E031
:1025200014E830E050E06D817E818F8198850E94B3
:102530000E02482D2F2D00E010E030E050E06D81BC
:102540007E818F8198850E940E024C2D2D2D00E0FA
:1025500014E830E050E06D817E818F8198850E9483
:102560000E02492D28E300EE1FEF30E050E06D81B0
:102570007E818F8198850E940E0287E3482F2E2D41
:1025800001E110E030E050E06D817E818F8198851F
:102590000E940E0288E5682F8D831E828DE58F8351
:1025A000188641EC20EB30E050E070E090E00E94B3
:1025B0000E02432D24EA00EE1FEF30E050E06D8163
:1025C0007E818F8198850E940E02442D252D0CEB73
:1025D0001EEA30E050E06D817E818F8198850E94F7
:1025E0000E02472D2B2D00E014E830E050E06D8105
:1025F0007E818F8198850E940E02482D2F2D00E04C
:1026000010E030E050E06D817E818F8198850E94DE
:102610000E024C2D2D2D00E014E830E050E06D81CD
:102620007E818F8198850E940E02492D2E2D0CEB04
:102630001EEA30E050E06D817E818F8198850E9496
:102640000E028EE5682F8D831E8283E68F831886A7
:1026500041EC20EB01E110E030E050E070E090E070
:102660000E940E02432D2E2D0CEB1EEA30E050E0AE
:102670006D817E818F8198850E940E02482D2F2DBD
:1026800000E014E830E050E06D817E818F81988514
:102690000E940E02492D2E2D00E018EF30E050E090
:1026A0006D817E818F8198850E940E0284E6682F5D
:1026B0008D831E8289E68F83188647EC26EB01E125
:1026C00010E030E050E070E090E00E940E02432DF8
:1026D0003AE7832E282D0CEB1EEA30E050E06D81A6
:1026E0007E818F8198850E940E0289E7482F22E61D
:1026F00000E114E830E050E06D817E818F819885A3
:102700000E940E0241E6942E492D2E2D0CEB1EEA5E
:1027100030E050E06D817E818F8198850E940E02AD
:102720004C2D2D2D00E018EF30E050E06D817E81C2
:102730008F8198850E940E028AE6682F8D831E8203
:102740008FE68F83188647EC26EB01E110E030E03E
:1027500050E070E090E00E940E0249EA22E90CEBA2
:102760001EEA30E050E06D817E818F8198850E9465
:102770000E0241E988E6282F00E114E830E050E03D
:102780006D817E818F8198850E940E0257E6D52E3D
:102790004D2D2E2D0CEB1EEA30E050E06D817E8138
:1027A0008F8198850E940E0289E4482F2F2D00E02A
:1027B00018EF30E050E06D817E818F8198850E9416
:1027C0000E0280E7682F8D831E8285E78F8318862F
:1027D0004DEC2CEB01E110E030E050E070E090E0D7
:1027E0000E940E02442D28E30CEB1EEA30E050E07C
:1027F0006D817E818F8198850E940E0286E7682F09
:102800008D831E828BE78F83188643ED22EC01E1D6
:1028100010E030E050E070E090E00E940E024A2D9F
:102820002F2D0CEB1EEA30E050E06D817E818F8110
:1028300098850E940E028CE7682F8D831E8281E8A6
:102840008F83188643ED28EC01E110E030E050E082
:1028500070E090E00E940E024A2D222D00EE1FEF44
:1028600030E050E06D817E818F8198850E940E025C
:10287000462D2AE40CEB1EEA30E050E06D817E81AB
:102880008F8198850E940E0282E8682F8D831E82B8
:1028900087E88F83188649ED2EEC01E110E030E0E7
:1028A00050E070E090E00E940E024A2D2CE800EE0D
:1028B0001FEF30E050E06D817E818F8198850E940E
:1028C0000E024BE82B2D0CEB1EEA30E050E06D8140
:1028D0007E818F8198850E940E0288E8682F8D8303
:1028E0001E828DE88F831886442D22E900EE1FEFAB
:1028F00030E050E070E090E00E940E028FE7482F39
:102900008B831C822CE50CEB1EEA30E050E06D81DD
:102910007E818F8198850E940E02282D00EE1FEF88
:1029200030E04B815C816D817E818F8198850E9432
:102930000E028EE8682F8D831E8283E98F831886AE
:10294000442D222D30E050E070E090E00E940E0215
:10295000492D252D30E050E06D817E818F81988555
:102960000E940E0284E9682F8D831E8289E98F837D
:102970001886432D2EE930E050E070E090E00E9490
:102980000E02492D2CE530E050E06D817E818F8173
:1029900098850E940E028AE9682F8D831E828FE936
:1029A0008F83188695EB492F2AEA30E050E070E0DB
:1029B00090E00E940E024D2D22E630E050E06D8145
:1029C0007E818F8198850E940E0228960FB6F8941A
:1029D000DEBF0FBECDBFDF91CF911F910F91FF9052
:1029E000EF90DF90CF90BF90AF909F908F907F90AF
:1029F0006F905F904F903F902F9008952F923F924D
:102A00004F925F926F927F928F929F92AF92BF92FE
:102A1000CF92DF92EF92FF920F931F93CF93DF93AA
:102A2000CDB7DEB728970FB6F894DEBF0FBECDBF87
:102A3000F82E8FE0682F72E3E72E2E2D85EAEAED5F
:102A4000DE2E4D2D00E010E030E050E070E090E030
:102A50000E940E0292E0F912E8C386E1682F8BE132
:102A60002DE5822E282D48E600EE1FEF30E050E0E5
:102A700070E090E00E940E028CE1682F81E239E65E
:102A8000432E242D44E7742E472D30E050E070E0B3
:102A900090E00E940E0282E2682F8D831E8287E200
:102AA0008F8318865FE6F52E2F2D4AE730E050E041
:102AB00070E090E00E940E0229E98EE9482F30E094
:102AC00050E06D817E818F8198850E940E0288E2A0
:102AD000682F8D831E828DE28F83188675E7272EDF
:102AE000222D40E830E050E070E090E00E940E02BD
:102AF00029E94AEA30E050E06D817E818F81988536
:102B00000E940E028EE2682F8D831E8283E38F83E4
:102B100018862BE786E8482F30E050E070E083E32A
:102B200090E00E940E0227E840EB01E110E030E067
:102B300050E06D817E818F8198850E940E0284E332
:102B4000682F8D831E8299E39F83188623E34EE3CB
:102B500030E050E070E089E390E00E940E022BE745
:102B600040E800EE1FEF30E050E06D817E818F8104
:102B700098850E940E0221E8ECEB3E2E432D01E1E8
:102B800010E030E050E06D817E818F8198850E9459
:102B90000E028AE3682F8D831E828FE38F8318864F
:102BA00029E344E430E050E070E090E00E940E023F
:102BB000222D42EC30E050E06D817E818F8198853E
:102BC0000E940E0280E4682F8D831E82F5E4BF2EE2
:102BD000BF82188629E34AE430E050E070E08B2D94
:102BE00090E00E940E022F2D40E830E050E06D8111
:102BF0007E818F8198850E940E0221E846EB00EECF
:102C00001FEF30E050E06D817E818F8198850E94BA
:102C10000E02A7EB5A2E252DBEECAB2E4A2D01E15C
:102C200010E030E050E06D817E818F8198850E94B8
:102C30000E0286E4682F8D831E829BE49F83188694
:102C40002FE340E530E050E070E08BE490E00E943C
:102C50000E02242D472D30E050E06D817E818F8162
:102C600098850E940E02222D18ECE12E4E2D00EECA
:102C70001FEF30E050E06D817E818F8198850E944A
:102C80000E0289EC982E292D44ED30E050E06D8144
:102C90007E818F8198850E940E028CE4682F8D833F
:102CA0001E8281E58F8318862B2D46E501E110E019
:102CB00030E050E070E090E00E940E0223E64EE625
:102CC00030E050E06D817E818F8198850E940E02F8
:102CD0002F2D432D00EE1FEF30E050E06D817E81FF
:102CE0008F8198850E940E029DEB692E262D4E2D18
:102CF00000E014E830E050E06D817E818F8198859E
:102D00000E940E02292D4A2D00EE1FEF30E050E008
:102D10006D817E818F8198850E940E022FECC22EDC
:102D20002C2D44ED30E050E06D817E818F819885BF
:102D30000E940E0282E5682F8D831E8287E58F83B5
:102D400018862B2D46E501E110E030E050E070E000
:102D500090E00E940E02282D42E630E050E06D81A6
:102D60007E818F8198850E940E0223E6472D00EE1A
:102D70001FEF30E050E06D817E818F8198850E9449
:102D80000E02222D46EB0CEB1EEA30E050E06D8186
:102D90007E818F8198850E940E02252D432D00E0B3
:102DA00014E830E050E06D817E818F8198850E942B
:102DB0000E02262D4E2D00E010E030E050E06D8137
:102DC0007E818F8198850E940E02292D4A2D00E078
:102DD00014E830E050E06D817E818F8198850E94FB
:102DE0000E022C2D44ED00EE1FEF30E050E06D811F
:102DF0007E818F8198850E940E0285ED282F4D2DB2
:102E000001E110E030E050E06D817E818F81988596
:102E10000E940E0288E5682F8D831E828F8218869D
:102E20002BE44CE530E050E070E0882D90E00E940B
:102E30000E02282D48E600EE1FEF30E050E06D81D5
:102E40007E818F8198850E940E02242D46EB0CEB2B
:102E50001EEA30E050E06D817E818F8198850E946E
:102E60000E02252D432D00E014E830E050E06D8186
:102E70007E818F8198850E940E02262D4E2D00E0C6
:102E800010E030E050E06D817E818F8198850E9456
:102E90000E02292D4A2D00E014E830E050E06D814B
:102EA0007E818F8198850E940E022C2D4D2D0CEB7A
:102EB0001EEA30E050E06D817E818F8198850E940E
:102EC0000E028EE5682F8D831E8293E69F831886FF
:102ED0002BE44CE501E110E030E050E070E083E6E7
:102EE00090E00E940E02282D4D2D0CEB1EEA30E0E2
:102EF00050E06D817E818F8198850E940E0284E66C
:102F0000682F8D831E824F8218862B2D46E501E1A6
:102F100010E030E050E070E0842D90E00E940E025E
:102F2000282D42E90CEB1EEA30E050E06D817E81F5
:102F30008F8198850E940E0233E9532E252D4AEA8F
:102F400000E114E830E050E06D817E818F8198854A
:102F50000E940E024BEA642E262D4E2D0CEB1EEA2B
:102F600030E050E06D817E818F8198850E940E0255
:102F7000292D4A2D00E018EF30E050E06D817E8170
:102F80008F8198850E940E022C2D4D2D0CEB1EEA90
:102F900030E050E06D817E818F8198850E940E0225
:102FA0008AE6682F8D831E82FF8218862B2D46E5C8
:102FB00001E110E030E050E070E08F2D90E00E94E1
:102FC0000E0223E64AE70CEB1EEA30E050E06D818A
:102FD0007E818F8198850E940E022BE784EA482F1C
:102FE00000E114E830E050E06D817E818F819885AA
:102FF0000E940E0225EA4D2DDB821C820CEB1EEA9C
:1030000030E050E06D817E818F8198850E940E02B4
:103010002C2D00E018EF30E04B815C816D817E81CA
:103020008F8198850E940E0280E7682F8D831E8213
:103030002F8218862FE340E501E110E030E050E0F8
:1030400070E0822D90E00E940E02242D44ED0CEBE6
:103050001EEA30E050E06D817E818F8198850E946C
:103060000E0286E7682F8D831E828BE78F8318867A
:1030700029E34AE401E110E030E050E070E090E044
:103080000E940E022F2D4E2D0CEB1EEA30E050E078
:103090006D817E818F8198850E940E028CE7682F5A
:1030A0008D831E8291E89F83188629E344E401E121
:1030B00010E030E050E070E081E890E00E940E0205
:1030C0002F2D472D00EE1FEF30E050E06D817E8107
:1030D0008F8198850E940E02222D42EC0CEB1EEA95
:1030E00030E050E06D817E818F8198850E940E02D4
:1030F00082E8682F8D831E8287E88F83188623E3FA
:103100004EE301E110E030E050E070E090E00E941A
:103110000E022F2D40E800EE1FEF30E050E06D81F1
:103120007E818F8198850E940E0221E8432D0CEB51
:103130001EEA30E050E06D817E818F8198850E948B
:103140000E0288E8682F8D831E825DE8F52EE12C43
:10315000FF82E886242D4AE700EE1FEF30E050E0C2
:1031600070E08F2D90E00E940E022F2DF982EA82EE
:1031700040EB0CEB1EEA30E050E06D817E818F81E8
:1031800098850E940E0242E900EE1FEF29813A81E4
:1031900050E06D817E818F8198850E940E028EE8BD
:1031A000682F8D831E825F821886242D472D30E084
:1031B00050E070E0852D90E00E940E02262D46EB37
:1031C00030E050E06D817E818F8198850E940E02F3
:1031D00084E9682F8D831E8299E99F831886282DA4
:1031E0004EE630E050E070E089E990E00E940E0287
:1031F000262D40EB30E050E06D817E818F819885F7
:103200000E940E028AE9682F8D831E828FE98F83C8
:10321000188627E542E630E050E070E090E00E943A
:103220000E0285EA282F4AEAC1C7F110D9C380E10E
:10323000682F85E127E85CE8452E442D4B821C82EF
:1032400000EE1FEF30E050E070E090E00E940E02D0
:1032500086E1682F8BE171E8D72E2D2DD9821A8255
:1032600030E04B815C8170E090E00E940E028CE1C6
:10327000682F81E229813A814B815C8170E090E086
:103280000E940E0282E2682F87E229813A814B81F7
:103290005C8170E090E00E940E0288E2682F8D83CE
:1032A0001E828DE28F831886E5E72E2E222D40E8C0
:1032B00001E110E030E050E070E090E00E940E028A
:1032C0002D2D442D00EE1FEF30E050E06D817E810A
:1032D0008F8198850E940E022DE848E901E110E0F7
:1032E00030E050E06D817E818F8198850E940E02D2
:1032F0008EE2682F8D831E8283E38F8318862FE6EC
:1033000040E830E050E070E090E00E940E022D2D89
:10331000442D00EE1FEF30E050E06D817E818F8103
:1033200098850E940E022DE84EE901E110E030E0A0
:1033300050E06D817E818F8198850E940E0284E32A
:10334000682F89E329E644EA30E050E070E090E03D
:103350000E940E028AE3682F8D831E828FE38F8383
:103360001886F5E4CF2E912C2C2D9AE4492F00E1FC
:1033700014E830E050E070E090E00E940E0223E696
:103380004AEA01E110E030E050E06D817E818F81FA
:1033900098850E940E0283EC282FA8ECBA2E4B2DA4
:1033A00000E114E830E050E06D817E818F819885E6
:1033B0000E940E0280E4682F8D831E82CF82988641
:1033C0002C2D80E5482F30E050E070E08C2D90E00F
:1033D0000E940E02BDE5EB2E2E2D10EBF12E4F2D8F
:1033E00000EE1FEF30E050E06D817E818F81988587
:1033F0000E940E0229E644EA01E110E030E050E0CC
:103400006D817E818F8198850E940E028DEB282F21
:103410004B2D00E114E830E050E06D817E818F811A
:1034200098850E940E0286E4682F8D831E828BE4AD
:10343000A82E312CAF8238862C2D96E5C92E4C2D26
:1034400030E050E070E08A2D90E00E940E022E2DB8
:103450004F2D00EE1FEF30E050E06D817E818F81B7
:1034600098850E940E022FE64EE901E110E030E05F
:1034700050E06D817E818F8198850E940E0227EB3E
:10348000722E272D4B2D00E114E830E050E06D81C5
:103490007E818F8198850E940E028CE4682F8D8337
:1034A0001E8231E5832E8F8218862A2D4C2D30E026
:1034B00050E070E0882D90E00E940E022E2DE982EF
:1034C0001A824F2D00EE1FEF30E050E06D817E81BB
:1034D0008F8198850E940E0248E600E014E8298159
:1034E0003A8150E06D817E818F8198850E940E0225
:1034F0002BE742E901E110E030E050E06D817E8190
:103500008F8198850E940E0225EA4F2D00E014E875
:1035100030E050E06D817E818F8198850E940E029F
:10352000272D42EC642E462D00E114E830E050E0F7
:103530006D817E818F8198850E940E0282E5682FC1
:103540008D831E8257E5B52EBF8218862A2D4C2DFD
:1035500030E050E070E08B2D90E00E940E022E2DA6
:103560004F2D00EE1FEF30E050E06D817E818F81A6
:1035700098850E940E022B2D6EE6A62E4A2D00E0A5
:1035800014E830E050E06D817E818F8198850E9443
:103590000E022D2D442D01E110E030E050E06D8150
:1035A0007E818F8198850E940E027FE9C72E2C2D87
:1035B000E6EB9E2E492D00E014E830E050E06D81EE
:1035C0007E818F8198850E940E02272D462D00E175
:1035D00014E830E050E06D817E818F8198850E94F3
:1035E0000E0288E5682F8D831E82EF821886282DB3
:1035F000FCEB7F2E472D0CEB1EEA30E050E070E034
:103600008E2D90E00E940E022B2DB9821A824A2D37
:1036100000E014E830E050E06D817E818F81988574
:103620000E940E02A2E65A2E452D00E010E02981EC
:103630003A8150E06D817E818F8198850E940E02D3
:103640002D2D442D00EE1FEF30E050E06D817E8186
:103650008F8198850E940E022C2D492D9B821C8201
:1036600000E014E830E050E06D817E818F81988524
:103670000E940E02BBEA6B2E262D00E010E030E027
:103680004B815C816D817E818F8198850E940E02C5
:103690008EE5682F8D831E8283E68F831886282D02
:1036A000472D0CEB1EEA30E050E070E090E00E9405
:1036B0000E022B2DB9821A824A2D00E014E830E068
:1036C00050E06D817E818F8198850E940E02452D8C
:1036D00000E010E029813A8150E06D817E818F8188
:1036E00098850E940E022D2D442D00EE1FEF30E034
:1036F00050E06D817E818F8198850E940E022C2D75
:10370000492D9B821C8200E014E830E050E06D817E
:103710007E818F8198850E940E02262D00E010E0A8
:1037200030E04B815C816D817E818F8198850E9424
:103730000E0284E6682F8D831E8299E69F83188689
:10374000282D472D0CEB1EEA30E050E070E089E6B2
:1037500090E00E940E022B2D4A2D00E014E830E08C
:1037600050E06D817E818F8198850E940E02222D0E
:103770001AE7712E472D00E018EF30E050E06D8120
:103780007E818F8198850E940E0283E9882E612CAC
:10379000282D48E930E050E06D817E818F81988549
:1037A0000E940E022C2D492D9B821C8200E014E801
:1037B00030E050E06D817E818F8198850E940E02FD
:1037C0008AE6682F8D831E828FE68F8318862B2DC5
:1037D0000CEB1EEA30E04B815C8170E090E00E94CF
:1037E0000E02222D472D00E018EF30E050E06D81F1
:1037F0007E818F8198850E940E02282D48E930E055
:1038000050E06D817E818F8198850E940E0280E755
:10381000682F8D831E822F8218862B2D492D0CEB4D
:103820001EEA30E050E070E0822D90E00E940E022F
:103830002BE740E800E018EF30E050E06D817E813A
:103840008F8198850E940E022DE842E930E050E019
:103850006D817E818F8198850E940E0286E7682F98
:103860008D831E829BE79F8318862E2D4F2D0CEB98
:103870001EEA30E050E070E08BE790E00E940E021C
:103880002D2D442D00E018EF30E050E06D817E8159
:103890008F8198850E940E028CE7682F2E2D4F2D68
:1038A0000CEB1EEA30E050E070E08D2D90E00E94BD
:1038B0000E0282E8682F87E823E64AEA30E050E00B
:1038C00070E090E00E940E0288E8682F29E62983C4
:1038D0001A8244EA30E050E070E08DE890E00E9407
:1038E0000E028EE8682F8D831E828F8268864A2D95
:1038F00000EE1FEF29813A8150E070E0882D90E0C2
:103900000E940E022FE64EE90CEB1EEA30E050E07A
:103910006D817E818F8198850E940E022C2D44EA54
:1039200000EE1FEF30E050E06D817E818F81988541
:103930000E940E0284E9682F8D831E8299E9D92E98
:10394000B12CDF82B88629E684E7482F30E050E0CA
:1039500070E08D2D90E00E940E02222D48E90CEBC4
:103960001EEA30E050E06D817E818F8198850E9453
:103970000E022D2D44EA00EE1FEF30E050E06D8185
:103980007E818F8198850E940E028AE9682F8D833F
:103990001E82CF82388623E64A2D30E050E070E068
:1039A0008C2D90E00E940E022C2D4AEA30E050E06F
:1039B0006D817E818F8198850E940E0280EA682F3A
:1039C0008D831E8285EA8F8318862E2D48E630E08F
:1039D00050E070E090E00E940E0225EA4F2DE6C311
:1039E00091E0F912EBC386E1682F8BE19FEA492E43
:1039F000442D24EA00EE1FEF30E050E070E090E04C
:103A00000E940E028CE1682F81E223EA322E432DC0
:103A100038E9532E252D30E050E070E090E00E9410
:103A20000E0282E2682F8D831E8287E28F831886C2
:103A30004DE9942E492D22E930E050E070E090E00D
:103A40000E940E0253E7F52E4F2D8EE6282F30E010
:103A500050E06D817E818F8198850E940E0286E202
:103A6000682F8D831E828DE28F83188677E9672EFB
:103A7000462D2CE830E050E070E090E00E940E020D
:103A80004F2D22E630E050E06D817E818F81988558
:103A90000E940E028CE2682F8D831E8283E38F8347
:103AA000188641E996E8292F30E050E070E090E078
:103AB0000E940E0285E8482F2CE501E110E030E07D
:103AC00050E06D817E818F8198850E940E0284E393
:103AD000682F8D831E8289E38F83188649ED2EEC33
:103AE00030E050E070E090E00E940E0241E92CE8E6
:103AF00000EE1FEF30E050E06D817E818F81988570
:103B00000E940E024BE8E0E5AE2E2A2D01E110E006
:103B100030E050E06D817E818F8198850E940E0299
:103B20008AE3682F8D831E828FE38F83188643ED8F
:103B300028EC30E050E070E090E00E940E02462D4C
:103B40002AE430E050E06D817E818F8198850E946B
:103B50000E0280E4682F8D831E8285E48F83188691
:103B600043ED22EC30E050E070E090E00E940E0265
:103B7000492D2CE830E050E06D817E818F81988561
:103B80000E940E024BE8F6E52F2E222D00EE1FEFCD
:103B900030E050E06D817E818F8198850E940E0219
:103BA000A5E57A2E472DBEE3CB2E2C2D01E110E0AA
:103BB00030E050E06D817E818F8198850E940E02F9
:103BC00086E4682F8D831E828BE48F8318864DECEC
:103BD0002CEB30E050E070E090E00E940E02432DAC
:103BE000252D30E050E06D817E818F8198850E9487
:103BF0000E02462D14E4F12E2F2D00EE1FEF30E0C3
:103C000050E06D817E818F8198850E940E0283E451
:103C1000B82E4B2D28E330E050E06D817E818F81FE
:103C200098850E940E028CE4682F8D831E8281E5A8
:103C30008F83188647EC26EB01E110E030E050E07E
:103C400070E090E00E940E0249EA2EE930E050E078
:103C50006D817E818F8198850E940E02492D2A2DCB
:103C600000EE1FEF30E050E06D817E818F819885FE
:103C70000E940E029FE4892E482D2F2D00E014E8AB
:103C800030E050E06D817E818F8198850E940E0228
:103C90004B2D2C2D00EE1FEF30E050E06D817E812A
:103CA0008F8198850E940E022DE3D22E4D2D28E3A0
:103CB00030E050E06D817E818F8198850E940E02F8
:103CC00082E5682F8D831E8287E58F83188647ECF7
:103CD00026EB01E110E030E050E070E090E00E945F
:103CE0000E02442D2AEA30E050E06D817E818F8102
:103CF00098850E940E0249EA252D00EE1FEF30E064
:103D000050E06D817E818F8198850E940E02462D44
:103D1000222D0CEB1EEA30E050E06D817E818F8118
:103D200098850E940E02472D2A2D00E014E830E00D
:103D300050E06D817E818F8198850E940E02482D12
:103D40002F2D00E010E030E050E06D817E818F810A
:103D500098850E940E024B2D2C2D00E014E830E0D7
:103D600050E06D817E818F8198850E940E024D2DDD
:103D700028E300EE1FEF30E050E06D817E818F81FF
:103D800098850E940E0287E3482F2E2D01E110E056
:103D900030E050E06D817E818F8198850E940E0217
:103DA00088E5682F8D831E828DE58F83188641EC10
:103DB00020EB30E050E070E090E00E940E02442DD5
:103DC00024EA00EE1FEF30E050E06D817E818F81AC
:103DD00098850E940E02432D222D0CEB1EEA30E046
:103DE00050E06D817E818F8198850E940E02472D63
:103DF0002A2D00E014E830E050E06D817E818F8153
:103E000098850E940E02482D2F2D00E010E030E032
:103E100050E06D817E818F8198850E940E024B2D2E
:103E20002C2D00E014E830E050E06D817E818F8120
:103E300098850E940E024D2D2E2D0CEB1EEA30E0CF
:103E400050E06D817E818F8198850E940E028EE503
:103E5000682F8D831E8283E68F83188641EC20EBCA
:103E600001E110E030E050E070E090E00E940E02CE
:103E7000442D2E2D0CEB1EEA30E050E06D817E814A
:103E80008F8198850E940E0284E6682F8D831E82A2
:103E900089E68F83188647EC26EB01E110E030E0DD
:103EA00050E070E090E00E940E02442D2AE70CEBF7
:103EB0001EEA30E050E06D817E818F8198850E94FE
:103EC0000E0289E7482F22E600E114E830E050E0D6
:103ED0006D817E818F8198850E940E0231E6832E4E
:103EE000482D2F2D0CEB1EEA30E050E06D817E81D5
:103EF0008F8198850E940E024B2D2C2D00E018EF2B
:103F000030E050E06D817E818F8198850E940E02A5
:103F10004D2D2E2D0CEB1EEA30E050E06D817E81A0
:103F20008F8198850E940E028AE6682F8D831E82FB
:103F30008FE68F83188647EC26EB01E110E030E036
:103F400050E070E090E00E940E0249EA22E90CEB9A
:103F50001EEA30E050E06D817E818F8198850E945D
:103F60000E0241E988E6282F00E114E830E050E035
:103F70006D817E818F8198850E940E0247E6C42E56
:103F80004C2D2E2DE9821A820CEB1EEA30E050E017
:103F90006D817E818F8198850E940E024D2D00E0FB
:103FA00018EF29813A8150E06D817E818F8198855B
:103FB0000E940E0280E7682F8D831E8285E78F8323
:103FC00018864DEC2CEB01E110E030E050E070E0A1
:103FD00090E00E940E02432D28E30CEB1EEA30E035
:103FE00050E06D817E818F8198850E940E0286E768
:103FF000682F8D831E828BE78F83188643ED22EC1A
:1040000001E110E030E050E070E090E00E940E022C
:10401000492D2F2D0CEB1EEA30E050E06D817E81A2
:104020008F8198850E940E028CE7682F8D831E82F7
:1040300081E88F83188643ED28EC01E110E030E041
:1040400050E070E090E00E940E02492D252D00EE18
:104050001FEF30E050E06D817E818F8198850E9456
:104060000E02462D2AE40CEB1EEA30E050E06D8192
:104070007E818F8198850E940E0282E8682F8D8351
:104080001E8287E88F83188649ED2EEC01E110E04F
:1040900030E050E070E090E00E940E02492D2CE8E4
:1040A00000EE1FEF30E050E06D817E818F819885BA
:1040B0000E940E024BE82A2D0CEB1EEA30E050E085
:1040C0006D817E818F8198850E940E0288E8682F1D
:1040D0008D831E828DE88F831886432D22E900EEA2
:1040E0001FEF30E050E070E090E00E940E028FE79A
:1040F000482F8B831C822CE50CEB1EEA30E050E04D
:104100006D817E818F8198850E940E022AE700EEE4
:104110001FEF30E04B815C816D817E818F819885BE
:104120000E940E028EE8682F8D831E8283E98F83A2
:104130001886432D252D30E050E070E090E00E947D
:104140000E02482D222D30E050E06D817E818F815E
:1041500098850E940E0284E9682F8D831E8289E96A
:104160008F831886442D2EE930E050E070E090E017
:104170000E940E02482D2CE530E050E06D817E81DA
:104180008F8198850E940E028AE9682F8D831E8296
:104190008FE98F83188695EB492F2AEA30E050E0AB
:1041A00070E090E00E940E024C2D22E630E050E0DC
:1041B0006D817E818F8198850E940E0228960FB6B0
:1041C000F894DEBF0FBECDBFDF91CF911F910F914D
:1041D000FF90EF90DF90CF90BF90AF909F908F9027
:1041E0007F906F905F904F903F902F900895209117
:1041F000DF023091E002232B11F40C94FE140C9496
:10420000C808FF920F931F93CF93DF930E94100370
:104210008AE090E09093CA028093C9021092C8028B
:1042200084E08093DE020E94BC2364E070E00E9480
:104230001A2201969093E0028093DF020E944A08BE
:104240008091C8020E94F72016BC85E085BD809150
:10425000E1029091E2020E94C023C4E0D0E001E0BC
:1042600084E0F82E11E08091DA0281117FC0A899D4
:104270006FC08091DA0281116BC08091C902909168
:10428000CA02892BC9F48091DF029091E002892B48
:1042900011F01093DA021092CA021092C9020E9421
:1042A000BC23BE010E941A228093DF029093E00299
:1042B0000E944A080E94A10580E090E00E94360515
:1042C00088E00E947C05882391F080E090E00E94C5
:1042D000D3068091DE028F5F853019F08093DE0275
:1042E00002C01093DE0280EE9FEF0E94D30680E2B0
:1042F0000E947C05882389F080E090E00E94D3062C
:104300008091DE02815019F08093DE0202C0F092AB
:10431000DE0280EE9FEF0E94D30680E80E947C05BB
:10432000882309F4A4CF8091DE020E948A080E94AB
:10433000A1058091C8028F5F833019F08093C80275
:1043400002C01092C8028091C8020E94F7208FCF4D
:1043500016BC05BB8091C9029091CA020197909347
:10436000CA028093C9020E94A1057DCF8CEA91E028
:104370000E9408088AE992E09093CA028093C902D9
:10438000DF91CF911F910F91FF900C94A10582E7CF
:1043900097E99093D6028093D5021092D80210929A
:1043A000D7028AEB91E00E94BD0489EF91E00E9460
:1043B000BD0487E292E00E94BD0487E592E00E947E
:1043C000BD0487EF91E00E94BD0482EA92E00E9462
:1043D000BD048091E1029091E202A091E302B091CC
:1043E000E4020196A11DB11D8093E1029093E202C7
:1043F000A093E302B093E40280E090E00E943605CF
:1044000080E80E947C05882321F30E940121E1CFEE
:104410001092E1021092E2021092E3021092E40282
:104420000E94460381E090E00E9464010E94F9042A
:104430000E94C72197FB072E16F4009407D077FD42
:1044400009D00E942E2207FC05D03EF4909581955C
:104450009F4F0895709561957F4F0895AA1BBB1BD0
:1044600051E107C0AA1FBB1FA617B70710F0A61B74
:10447000B70B881F991F5A95A9F780959095BC0195
:10448000CD0108950E9456220C9437230E943023B8
:1044900058F00E94292340F029F45F3F29F00C9442
:1044A000202351110C946B230C9426230E94482343
:1044B00068F39923B1F3552391F3951B550BBB2753
:1044C000AA2762177307840738F09F5F5F4F220F98
:1044D000331F441FAA1FA9F335D00E2E3AF0E0E88F
:1044E00032D091505040E695001CCAF72BD0FE2FD9
:1044F00029D0660F771F881FBB1F2617370748076D
:10450000AB07B0E809F0BB0B802DBF01FF27935824
:104510005F4F3AF09E3F510578F00C9420230C94A5
:104520006B235F3FE4F3983ED4F3869577956795C8
:10453000B795F7959F5FC9F7880F911D9695879559
:1045400097F90895E1E0660F771F881FBB1F621778
:1045500073078407BA0720F0621B730B840BBA0B36
:10456000EE1F88F7E09508950E94502388F09F572A
:1045700098F0B92F9927B751B0F0E1F0660F771F87
:10458000881F991F1AF0BA95C9F714C0B13091F07D
:104590000E946A23B1E008950C946A23672F782F54
:1045A0008827B85F39F0B93FCCF386957795679542
:1045B000B395D9F73EF490958095709561957F4FAE
:1045C0008F4F9F4F0895E89409C097FB3EF4909554
:1045D0008095709561957F4F8F4F9F4F9923A9F0DC
:1045E000F92F96E9BB279395F6958795779567956B
:1045F000B795F111F8CFFAF4BB0F11F460FF1BC0AF
:104600006F5F7F4F8F4F9F4F16C0882311F096E941
:1046100011C0772321F09EE8872F762F05C06623EF
:1046200071F096E8862F70E060E02AF09A95660FA8
:10463000771F881FDAF7880F9695879597F9089561
:1046400097F99F6780E870E060E008959FEF80EC45
:10465000089500240A9416161706180609060895E8
:1046600000240A9412161306140605060895092E4E
:104670000394000C11F4882352F0BB0F40F4BF2BBD
:1046800011F460FF04C06F5F7F4F8F4F9F4F0895FD
:1046900057FD9058440F551F59F05F3F71F04795F3
:1046A000880F97FB991F61F09F3F79F087950895D8
:1046B000121613061406551FF2CF4695F1DF08C0F7
:1046C000161617061806991FF1CF86957105610514
:1046D00008940895E894BB2766277727CB0197F9BC
:1046E00008958F929F92AF92BF92CF92DF92EF92F6
:1046F000FF92CF93DF93EC01688179818A819B815E
:10470000611571058105910521F464E279ED8BE570
:1047100097E02DE133EF41E050E00E940024490191
:104720005A019B01AC01A7EAB1E40E941F246B016E
:104730007C01ACEEB4EFA50194010E942D24DC01B4
:10474000CB018C0D9D1DAE1DBF1DB7FF03C0019792
:10475000A109B04888839983AA83BB839F77DF919F
:10476000CF91FF90EF90DF90CF90BF90AF909F9050
:104770008F9008950C94712380E091E00C94712344
:10478000A0E0B0E08093000190930101A0930201AA
:10479000B09303010895BB274A3031F4992322F4E2
:1047A000BDE2909581959F4F0C94D723BB27FB01C9
:1047B0005527AA27880F991FAA1FA41710F0A41B1A
:1047C00083955051B9F7A05DAA3308F0A95DA19374
:1047D000009779F7B111B1931192CB010C94F023AA
:1047E000DC01FC01672F71917723E1F7329704C058
:1047F0007C916D9370836291AE17BF07C8F30895E3
:10480000052E97FB1EF400940E94172457FD07D035
:104810000E94322407FC03D04EF40C9417245095C8
:104820004095309521953F4F4F4F5F4F089590959C
:104830008095709561957F4F8F4F9F4F08950E948F
:104840005424A59F900DB49F900DA49F800D911DA1
:1048500011240895B7FF0C941F240E941F24821B6B
:10486000930B0895A1E21A2EAA1BBB1BFD010DC0DC
:10487000AA1FBB1FEE1FFF1FA217B307E407F50710
:1048800020F0A21BB30BE40BF50B661F771F881FEC
:10489000991F1A9469F760957095809590959B0182
:1048A000AC01BD01CF010895A29FB001B39FC0012B
:1048B000A39F700D811D1124911DB29F700D811D4C
:0A48C0001124911D0895F894FFCF14
:1048CA000100000046454544004D45212100485558
:1048DA00470057414C4B00574153480049274D2048
:1048EA005354415256494E47212100646F20752086
:1048FA006576656E206C7576206D650069206C6F33
:10490A006F6B2066617420706967006D7920666933
:10491A006E73207374616E6B79006D6D6D206368C0
:10492A0069636B656E2100637564646C65206275EA
:10493A0062626C657300776F6F6621006920666535
:10494A00656C206672657368210075686D6D2E2E20
:10495A00206E6F207468616E6B730069276D206426
:10496A0079696E672068657265212100796F752003
:10497A006B696C6C6564206D650057656C636F6D5F
:10498A006520746F2054554E41474F544348492E71
:10499A0020546865206E6565646965737420746166
:1049AA006D61676F7463686920696E207468652039
:1049BA00776F726C6421210A0054686973207475D8
:1049CA006E6120697320616C77617973203220737C
:1049DA007465707320617761792066726F6D2064E7
:1049EA00656174682E0A00497420616C736F2074C3
:1049FA00656E647320746F206265206472616D61F4
:104A0A007469632061626F75742065766572797462
:104A1A0068696E672E0A0054756E61207374696C3A
:104A2A006C206C6F76657320796F7520776974686E
:104A3A00206974732074696E7920666973682068C6
:104A4A00656172742C2062757420686173206465D4
:104A5A00657020696E736563757269746965732E12
:104A6A000A005072657373204F4B20696620796F74
:104A7A0075206C6F76652054756E61206261636B78
:044A8A002E0A0000F0
:00000001FF
